{"contracts/HumanScore.sol":{"HumanScore":{"abi":[{"inputs":[{"internalType":"address","name":"_humanIdentity","type":"address"},{"internalType":"address","name":"_proofRegistry","type":"address"}],"stateMutability":"nonpayable","type":"constructor"},{"anonymous":false,"inputs":[{"indexed":true,"internalType":"bytes32","name":"impactType","type":"bytes32"},{"indexed":false,"internalType":"uint256","name":"weight","type":"uint256"}],"name":"ImpactWeightUpdated","type":"event"},{"inputs":[],"name":"CO2E_AVOIDED","outputs":[{"internalType":"bytes32","name":"","type":"bytes32"}],"stateMutability":"view","type":"function"},{"inputs":[],"name":"DECAY_RATE_BPS_PER_YEAR","outputs":[{"internalType":"uint256","name":"","type":"uint256"}],"stateMutability":"view","type":"function"},{"inputs":[],"name":"EV_CHARGING","outputs":[{"internalType":"bytes32","name":"","type":"bytes32"}],"stateMutability":"view","type":"function"},{"inputs":[],"name":"RENEWABLE_ENERGY","outputs":[{"internalType":"bytes32","name":"","type":"bytes32"}],"stateMutability":"view","type":"function"},{"inputs":[],"name":"SECONDS_PER_YEAR","outputs":[{"internalType":"uint256","name":"","type":"uint256"}],"stateMutability":"view","type":"function"},{"inputs":[],"name":"SUSTAINABLE_PURCHASE","outputs":[{"internalType":"bytes32","name":"","type":"bytes32"}],"stateMutability":"view","type":"function"},{"inputs":[],"name":"TIER_A_MULTIPLIER","outputs":[{"internalType":"uint256","name":"","type":"uint256"}],"stateMutability":"view","type":"function"},{"inputs":[],"name":"TIER_B_MULTIPLIER","outputs":[{"internalType":"uint256","name":"","type":"uint256"}],"stateMutability":"view","type":"function"},{"inputs":[],"name":"TIER_C_MULTIPLIER","outputs":[{"internalType":"uint256","name":"","type":"uint256"}],"stateMutability":"view","type":"function"},{"inputs":[],"name":"TREES_PLANTED","outputs":[{"internalType":"bytes32","name":"","type":"bytes32"}],"stateMutability":"view","type":"function"},{"inputs":[{"internalType":"bytes32","name":"humanId","type":"bytes32"}],"name":"getHumanLevel","outputs":[{"internalType":"uint8","name":"level","type":"uint8"}],"stateMutability":"view","type":"function"},{"inputs":[{"internalType":"bytes32","name":"humanId","type":"bytes32"}],"name":"getHumanScore","outputs":[{"internalType":"uint256","name":"score","type":"uint256"}],"stateMutability":"view","type":"function"},{"inputs":[{"internalType":"bytes32","name":"humanId","type":"bytes32"},{"internalType":"bytes32","name":"impactType","type":"bytes32"}],"name":"getImpactBreakdown","outputs":[{"internalType":"uint256","name":"totalValue","type":"uint256"},{"internalType":"uint256","name":"weightedValue","type":"uint256"}],"stateMutability":"view","type":"function"},{"inputs":[{"internalType":"bytes32","name":"humanId","type":"bytes32"}],"name":"getProofCountByTier","outputs":[{"internalType":"uint256","name":"tierA","type":"uint256"},{"internalType":"uint256","name":"tierB","type":"uint256"},{"internalType":"uint256","name":"tierC","type":"uint256"}],"stateMutability":"view","type":"function"},{"inputs":[],"name":"humanIdentity","outputs":[{"internalType":"contract IHumanIdentity","name":"","type":"address"}],"stateMutability":"view","type":"function"},{"inputs":[{"internalType":"bytes32","name":"","type":"bytes32"}],"name":"impactWeights","outputs":[{"internalType":"uint256","name":"","type":"uint256"}],"stateMutability":"view","type":"function"},{"inputs":[{"internalType":"bytes32","name":"humanId","type":"bytes32"},{"internalType":"uint256","name":"minScore","type":"uint256"}],"name":"meetsThreshold","outputs":[{"internalType":"bool","name":"","type":"bool"}],"stateMutability":"view","type":"function"},{"inputs":[],"name":"proofRegistry","outputs":[{"internalType":"contract ProofRegistry","name":"","type":"address"}],"stateMutability":"view","type":"function"}],"evm":{"bytecode":{"linkReferences":{},"object":"60c060405234801561001057600080fd5b50604051610f73380380610f7383398101604081905261002f91610144565b6001600160a01b039182166080521660a052600060208190526127107fd135433dca196eb864990465e057132ffcadd9d10983e874df1427dc1184c5978190557ffdc0c8a6735303f03a6abe513ed2498f6938ed112bf66f8f87ff3cfa19223ca655613a987fc1c2e2e5357fc765fb07d68c1f89e3e7027eda4ff45bbe81d8771dd9656eee7a55611f407fe276a7c8b5b914014380d6594e981a24fc83110d9657a4884944afac208a265e557f13430198d57ffc5762557efb57d599c9d34b9f2388bc3db9ced1d5f9a0c1ba7990526113887fc1082515ac2a46f11578aacaa31cf9e54e29545e78173692b11d65a3621710f255610177565b80516001600160a01b038116811461013f57600080fd5b919050565b6000806040838503121561015757600080fd5b61016083610128565b915061016e60208401610128565b90509250929050565b60805160a051610dad6101c66000396000818161026501528181610491015281816105340152818161067a015281816106fb0152818161085401526108f7015260006101b10152610dad6000f3fe608060405234801561001057600080fd5b50600436106101165760003560e01c8063af1bd827116100a2578063cd9166e911610071578063cd9166e9146102d1578063d8141862146102da578063e6a69ab814610308578063f135f23414610313578063f42210f61461032657600080fd5b8063af1bd82714610260578063b1e97fc414610287578063b33b9de5146102aa578063cd5e4ae71461015757600080fd5b80635a03de47116100e95780635a03de4714610187578063701a78b7146101ac57806383872d2f146101eb5780639e9466a114610212578063ae0534d81461023957600080fd5b80630359cc0a1461011b578063212cb0a5146101375780633223f256146101575780633767eb0714610160575b600080fd5b61012461138881565b6040519081526020015b60405180910390f35b610124610145366004610ad5565b60006020819052908152604090205481565b6101246103e881565b6101247f13430198d57ffc5762557efb57d599c9d34b9f2388bc3db9ced1d5f9a0c1ba7981565b61019a610195366004610ad5565b61034e565b60405160ff909116815260200161012e565b6101d37f000000000000000000000000000000000000000000000000000000000000000081565b6040516001600160a01b03909116815260200161012e565b6101247f514ec64fbf29581c69bfa34142c3d3886b01e2fd4edd517f9a3f3c5b1c4ea04281565b6101247f7b3078b4643a2e1bcb01765080deadcd8fe753a6c1ab9a6ce2cfdd6db149345b81565b6101247f142b73925e8bf2e0aa11e45a695345afce4963253ae3b068ef5b55b935c8e13d81565b6101d37f000000000000000000000000000000000000000000000000000000000000000081565b61029a610295366004610aee565b610419565b604051901515815260200161012e565b6101247f484cc3fca059a309d83ae3160cd79770521b2fbf11c656550a18d301bd7f1fd081565b61012461271081565b6102ed6102e8366004610ad5565b610489565b6040805193845260208401929092529082015260600161012e565b6101246301e1338081565b610124610321366004610ad5565b610657565b610339610334366004610aee565b61084d565b6040805192835260208301919091520161012e565b604051633c4d7c8d60e21b8152600481018290526000908190309063f135f23490602401602060405180830381865afa15801561038f573d6000803e3d6000fd5b505050506040513d601f19601f820116820180604052508101906103b39190610b10565b9050620f424081106103c85750600592915050565b620186a081106103db5750600492915050565b61271081106103ed5750600392915050565b6103e881106103ff5750600292915050565b606481106104105750600192915050565b50600092915050565b604051633c4d7c8d60e21b8152600481018390526000908290309063f135f23490602401602060405180830381865afa15801561045a573d6000803e3d6000fd5b505050506040513d601f19601f8201168201806040525081019061047e9190610b10565b101590505b92915050565b6000806000807f00000000000000000000000000000000000000000000000000000000000000006001600160a01b031663b385565b866040518263ffffffff1660e01b81526004016104dd91815260200190565b600060405180830381865afa1580156104fa573d6000803e3d6000fd5b505050506040513d6000823e601f3d908101601f191682016040526105229190810190610b99565b905060005b815181101561064e5760007f00000000000000000000000000000000000000000000000000000000000000006001600160a01b0316631b80bb3a84848151811061057357610573610c3f565b60200260200101516040518263ffffffff1660e01b815260040161059991815260200190565b60e060405180830381865afa1580156105b6573d6000803e3d6000fd5b505050506040513d601f19601f820116820180604052508101906105da9190610c6b565b90508060c0015160ff166001036105fd57856105f581610cff565b96505061063b565b8060c0015160ff1660020361061e578461061681610cff565b95505061063b565b8060c0015160ff1660030361063b578361063781610cff565b9450505b508061064681610cff565b915050610527565b50509193909250565b60405163b385565b60e01b81526004810182905260009081906001600160a01b037f0000000000000000000000000000000000000000000000000000000000000000169063b385565b90602401600060405180830381865afa1580156106c1573d6000803e3d6000fd5b505050506040513d6000823e601f3d908101601f191682016040526106e99190810190610b99565b905060005b81518110156108465760007f00000000000000000000000000000000000000000000000000000000000000006001600160a01b0316631b80bb3a84848151811061073a5761073a610c3f565b60200260200101516040518263ffffffff1660e01b815260040161076091815260200190565b60e060405180830381865afa15801561077d573d6000803e3d6000fd5b505050506040513d601f19601f820116820180604052508101906107a19190610c6b565b6040808201516020808401516000908152908190529182205492935091908190036107cb57506127105b60006107da8460c00151610a13565b905060006107eb8560a00151610a5a565b9050600064e8d4a5100082846108018789610d18565b61080b9190610d18565b6108159190610d18565b61081f9190610d2f565b905061082b818a610d51565b9850505050505050808061083e90610cff565b9150506106ee565b5050919050565b60008060007f00000000000000000000000000000000000000000000000000000000000000006001600160a01b031663b385565b866040518263ffffffff1660e01b81526004016108a091815260200190565b600060405180830381865afa1580156108bd573d6000803e3d6000fd5b505050506040513d6000823e601f3d908101601f191682016040526108e59190810190610b99565b905060005b8151811015610a0a5760007f00000000000000000000000000000000000000000000000000000000000000006001600160a01b0316631b80bb3a84848151811061093657610936610c3f565b60200260200101516040518263ffffffff1660e01b815260040161095c91815260200190565b60e060405180830381865afa158015610979573d6000803e3d6000fd5b505050506040513d601f19601f8201168201806040525081019061099d9190610c6b565b9050858160200151036109f75760408101516109b99086610d51565b945060006109ca8260c00151610a13565b90506127108183604001516109df9190610d18565b6109e99190610d2f565b6109f39086610d51565b9450505b5080610a0281610cff565b9150506108ea565b50509250929050565b60008160ff16600103610a295750612710919050565b8160ff16600203610a3d5750611388919050565b8160ff16600303610a5157506103e8919050565b506103e8919050565b60008167ffffffffffffffff164211610a765750612710919050565b6000610a8c67ffffffffffffffff841642610d64565b905060006301e13380610aa16103e884610d18565b610aab9190610d2f565b90506123288110610ac157506103e89392505050565b610acd81612710610d64565b949350505050565b600060208284031215610ae757600080fd5b5035919050565b60008060408385031215610b0157600080fd5b50508035926020909101359150565b600060208284031215610b2257600080fd5b5051919050565b634e487b7160e01b600052604160045260246000fd5b60405160e0810167ffffffffffffffff81118282101715610b6257610b62610b29565b60405290565b604051601f8201601f1916810167ffffffffffffffff81118282101715610b9157610b91610b29565b604052919050565b60006020808385031215610bac57600080fd5b825167ffffffffffffffff80821115610bc457600080fd5b818501915085601f830112610bd857600080fd5b815181811115610bea57610bea610b29565b8060051b9150610bfb848301610b68565b8181529183018401918481019088841115610c1557600080fd5b938501935b83851015610c3357845182529385019390850190610c1a565b98975050505050505050565b634e487b7160e01b600052603260045260246000fd5b805160ff81168114610c6657600080fd5b919050565b600060e08284031215610c7d57600080fd5b610c85610b3f565b825181526020830151602082015260408301516040820152606083015160608201526080830151608082015260a083015167ffffffffffffffff81168114610ccc57600080fd5b60a0820152610cdd60c08401610c55565b60c08201529392505050565b634e487b7160e01b600052601160045260246000fd5b600060018201610d1157610d11610ce9565b5060010190565b808202811582820484141761048357610483610ce9565b600082610d4c57634e487b7160e01b600052601260045260246000fd5b500490565b8082018082111561048357610483610ce9565b8181038181111561048357610483610ce956fea2646970667358221220491ab767064f3fa2a450631218f1a7d59aa72e2637d63b15a57fcc2428d528fb64736f6c63430008140033","opcodes":"PUSH1 0xC0 PUSH1 0x40 MSTORE CALLVALUE DUP1 ISZERO PUSH2 0x10 JUMPI PUSH1 0x0 DUP1 REVERT JUMPDEST POP PUSH1 0x40 MLOAD PUSH2 0xF73 CODESIZE SUB DUP1 PUSH2 0xF73 DUP4 CODECOPY DUP2 ADD PUSH1 0x40 DUP2 SWAP1 MSTORE PUSH2 0x2F SWAP2 PUSH2 0x144 JUMP JUMPDEST PUSH1 0x1 PUSH1 0x1 PUSH1 0xA0 SHL SUB SWAP2 DUP3 AND PUSH1 0x80 MSTORE AND PUSH1 0xA0 MSTORE PUSH1 0x0 PUSH1 0x20 DUP2 SWAP1 MSTORE PUSH2 0x2710 PUSH32 0xD135433DCA196EB864990465E057132FFCADD9D10983E874DF1427DC1184C597 DUP2 SWAP1 SSTORE PUSH32 0xFDC0C8A6735303F03A6ABE513ED2498F6938ED112BF66F8F87FF3CFA19223CA6 SSTORE PUSH2 0x3A98 PUSH32 0xC1C2E2E5357FC765FB07D68C1F89E3E7027EDA4FF45BBE81D8771DD9656EEE7A SSTORE PUSH2 0x1F40 PUSH32 0xE276A7C8B5B914014380D6594E981A24FC83110D9657A4884944AFAC208A265E SSTORE PUSH32 0x13430198D57FFC5762557EFB57D599C9D34B9F2388BC3DB9CED1D5F9A0C1BA79 SWAP1 MSTORE PUSH2 0x1388 PUSH32 0xC1082515AC2A46F11578AACAA31CF9E54E29545E78173692B11D65A3621710F2 SSTORE PUSH2 0x177 JUMP JUMPDEST DUP1 MLOAD PUSH1 0x1 PUSH1 0x1 PUSH1 0xA0 SHL SUB DUP2 AND DUP2 EQ PUSH2 0x13F JUMPI PUSH1 0x0 DUP1 REVERT JUMPDEST SWAP2 SWAP1 POP JUMP JUMPDEST PUSH1 0x0 DUP1 PUSH1 0x40 DUP4 DUP6 SUB SLT ISZERO PUSH2 0x157 JUMPI PUSH1 0x0 DUP1 REVERT JUMPDEST PUSH2 0x160 DUP4 PUSH2 0x128 JUMP JUMPDEST SWAP2 POP PUSH2 0x16E PUSH1 0x20 DUP5 ADD PUSH2 0x128 JUMP JUMPDEST SWAP1 POP SWAP3 POP SWAP3 SWAP1 POP JUMP JUMPDEST PUSH1 0x80 MLOAD PUSH1 0xA0 MLOAD PUSH2 0xDAD PUSH2 0x1C6 PUSH1 0x0 CODECOPY PUSH1 0x0 DUP2 DUP2 PUSH2 0x265 ADD MSTORE DUP2 DUP2 PUSH2 0x491 ADD MSTORE DUP2 DUP2 PUSH2 0x534 ADD MSTORE DUP2 DUP2 PUSH2 0x67A ADD MSTORE DUP2 DUP2 PUSH2 0x6FB ADD MSTORE DUP2 DUP2 PUSH2 0x854 ADD MSTORE PUSH2 0x8F7 ADD MSTORE PUSH1 0x0 PUSH2 0x1B1 ADD MSTORE PUSH2 0xDAD PUSH1 0x0 RETURN INVALID PUSH1 0x80 PUSH1 0x40 MSTORE CALLVALUE DUP1 ISZERO PUSH2 0x10 JUMPI PUSH1 0x0 DUP1 REVERT JUMPDEST POP PUSH1 0x4 CALLDATASIZE LT PUSH2 0x116 JUMPI PUSH1 0x0 CALLDATALOAD PUSH1 0xE0 SHR DUP1 PUSH4 0xAF1BD827 GT PUSH2 0xA2 JUMPI DUP1 PUSH4 0xCD9166E9 GT PUSH2 0x71 JUMPI DUP1 PUSH4 0xCD9166E9 EQ PUSH2 0x2D1 JUMPI DUP1 PUSH4 0xD8141862 EQ PUSH2 0x2DA JUMPI DUP1 PUSH4 0xE6A69AB8 EQ PUSH2 0x308 JUMPI DUP1 PUSH4 0xF135F234 EQ PUSH2 0x313 JUMPI DUP1 PUSH4 0xF42210F6 EQ PUSH2 0x326 JUMPI PUSH1 0x0 DUP1 REVERT JUMPDEST DUP1 PUSH4 0xAF1BD827 EQ PUSH2 0x260 JUMPI DUP1 PUSH4 0xB1E97FC4 EQ PUSH2 0x287 JUMPI DUP1 PUSH4 0xB33B9DE5 EQ PUSH2 0x2AA JUMPI DUP1 PUSH4 0xCD5E4AE7 EQ PUSH2 0x157 JUMPI PUSH1 0x0 DUP1 REVERT JUMPDEST DUP1 PUSH4 0x5A03DE47 GT PUSH2 0xE9 JUMPI DUP1 PUSH4 0x5A03DE47 EQ PUSH2 0x187 JUMPI DUP1 PUSH4 0x701A78B7 EQ PUSH2 0x1AC JUMPI DUP1 PUSH4 0x83872D2F EQ PUSH2 0x1EB JUMPI DUP1 PUSH4 0x9E9466A1 EQ PUSH2 0x212 JUMPI DUP1 PUSH4 0xAE0534D8 EQ PUSH2 0x239 JUMPI PUSH1 0x0 DUP1 REVERT JUMPDEST DUP1 PUSH4 0x359CC0A EQ PUSH2 0x11B JUMPI DUP1 PUSH4 0x212CB0A5 EQ PUSH2 0x137 JUMPI DUP1 PUSH4 0x3223F256 EQ PUSH2 0x157 JUMPI DUP1 PUSH4 0x3767EB07 EQ PUSH2 0x160 JUMPI JUMPDEST PUSH1 0x0 DUP1 REVERT JUMPDEST PUSH2 0x124 PUSH2 0x1388 DUP2 JUMP JUMPDEST PUSH1 0x40 MLOAD SWAP1 DUP2 MSTORE PUSH1 0x20 ADD JUMPDEST PUSH1 0x40 MLOAD DUP1 SWAP2 SUB SWAP1 RETURN JUMPDEST PUSH2 0x124 PUSH2 0x145 CALLDATASIZE PUSH1 0x4 PUSH2 0xAD5 JUMP JUMPDEST PUSH1 0x0 PUSH1 0x20 DUP2 SWAP1 MSTORE SWAP1 DUP2 MSTORE PUSH1 0x40 SWAP1 KECCAK256 SLOAD DUP2 JUMP JUMPDEST PUSH2 0x124 PUSH2 0x3E8 DUP2 JUMP JUMPDEST PUSH2 0x124 PUSH32 0x13430198D57FFC5762557EFB57D599C9D34B9F2388BC3DB9CED1D5F9A0C1BA79 DUP2 JUMP JUMPDEST PUSH2 0x19A PUSH2 0x195 CALLDATASIZE PUSH1 0x4 PUSH2 0xAD5 JUMP JUMPDEST PUSH2 0x34E JUMP JUMPDEST PUSH1 0x40 MLOAD PUSH1 0xFF SWAP1 SWAP2 AND DUP2 MSTORE PUSH1 0x20 ADD PUSH2 0x12E JUMP JUMPDEST PUSH2 0x1D3 PUSH32 0x0 DUP2 JUMP JUMPDEST PUSH1 0x40 MLOAD PUSH1 0x1 PUSH1 0x1 PUSH1 0xA0 SHL SUB SWAP1 SWAP2 AND DUP2 MSTORE PUSH1 0x20 ADD PUSH2 0x12E JUMP JUMPDEST PUSH2 0x124 PUSH32 0x514EC64FBF29581C69BFA34142C3D3886B01E2FD4EDD517F9A3F3C5B1C4EA042 DUP2 JUMP JUMPDEST PUSH2 0x124 PUSH32 0x7B3078B4643A2E1BCB01765080DEADCD8FE753A6C1AB9A6CE2CFDD6DB149345B DUP2 JUMP JUMPDEST PUSH2 0x124 PUSH32 0x142B73925E8BF2E0AA11E45A695345AFCE4963253AE3B068EF5B55B935C8E13D DUP2 JUMP JUMPDEST PUSH2 0x1D3 PUSH32 0x0 DUP2 JUMP JUMPDEST PUSH2 0x29A PUSH2 0x295 CALLDATASIZE PUSH1 0x4 PUSH2 0xAEE JUMP JUMPDEST PUSH2 0x419 JUMP JUMPDEST PUSH1 0x40 MLOAD SWAP1 ISZERO ISZERO DUP2 MSTORE PUSH1 0x20 ADD PUSH2 0x12E JUMP JUMPDEST PUSH2 0x124 PUSH32 0x484CC3FCA059A309D83AE3160CD79770521B2FBF11C656550A18D301BD7F1FD0 DUP2 JUMP JUMPDEST PUSH2 0x124 PUSH2 0x2710 DUP2 JUMP JUMPDEST PUSH2 0x2ED PUSH2 0x2E8 CALLDATASIZE PUSH1 0x4 PUSH2 0xAD5 JUMP JUMPDEST PUSH2 0x489 JUMP JUMPDEST PUSH1 0x40 DUP1 MLOAD SWAP4 DUP5 MSTORE PUSH1 0x20 DUP5 ADD SWAP3 SWAP1 SWAP3 MSTORE SWAP1 DUP3 ADD MSTORE PUSH1 0x60 ADD PUSH2 0x12E JUMP JUMPDEST PUSH2 0x124 PUSH4 0x1E13380 DUP2 JUMP JUMPDEST PUSH2 0x124 PUSH2 0x321 CALLDATASIZE PUSH1 0x4 PUSH2 0xAD5 JUMP JUMPDEST PUSH2 0x657 JUMP JUMPDEST PUSH2 0x339 PUSH2 0x334 CALLDATASIZE PUSH1 0x4 PUSH2 0xAEE JUMP JUMPDEST PUSH2 0x84D JUMP JUMPDEST PUSH1 0x40 DUP1 MLOAD SWAP3 DUP4 MSTORE PUSH1 0x20 DUP4 ADD SWAP2 SWAP1 SWAP2 MSTORE ADD PUSH2 0x12E JUMP JUMPDEST PUSH1 0x40 MLOAD PUSH4 0x3C4D7C8D PUSH1 0xE2 SHL DUP2 MSTORE PUSH1 0x4 DUP2 ADD DUP3 SWAP1 MSTORE PUSH1 0x0 SWAP1 DUP2 SWAP1 ADDRESS SWAP1 PUSH4 0xF135F234 SWAP1 PUSH1 0x24 ADD PUSH1 0x20 PUSH1 0x40 MLOAD DUP1 DUP4 SUB DUP2 DUP7 GAS STATICCALL ISZERO DUP1 ISZERO PUSH2 0x38F JUMPI RETURNDATASIZE PUSH1 0x0 DUP1 RETURNDATACOPY RETURNDATASIZE PUSH1 0x0 REVERT JUMPDEST POP POP POP POP PUSH1 0x40 MLOAD RETURNDATASIZE PUSH1 0x1F NOT PUSH1 0x1F DUP3 ADD AND DUP3 ADD DUP1 PUSH1 0x40 MSTORE POP DUP2 ADD SWAP1 PUSH2 0x3B3 SWAP2 SWAP1 PUSH2 0xB10 JUMP JUMPDEST SWAP1 POP PUSH3 0xF4240 DUP2 LT PUSH2 0x3C8 JUMPI POP PUSH1 0x5 SWAP3 SWAP2 POP POP JUMP JUMPDEST PUSH3 0x186A0 DUP2 LT PUSH2 0x3DB JUMPI POP PUSH1 0x4 SWAP3 SWAP2 POP POP JUMP JUMPDEST PUSH2 0x2710 DUP2 LT PUSH2 0x3ED JUMPI POP PUSH1 0x3 SWAP3 SWAP2 POP POP JUMP JUMPDEST PUSH2 0x3E8 DUP2 LT PUSH2 0x3FF JUMPI POP PUSH1 0x2 SWAP3 SWAP2 POP POP JUMP JUMPDEST PUSH1 0x64 DUP2 LT PUSH2 0x410 JUMPI POP PUSH1 0x1 SWAP3 SWAP2 POP POP JUMP JUMPDEST POP PUSH1 0x0 SWAP3 SWAP2 POP POP JUMP JUMPDEST PUSH1 0x40 MLOAD PUSH4 0x3C4D7C8D PUSH1 0xE2 SHL DUP2 MSTORE PUSH1 0x4 DUP2 ADD DUP4 SWAP1 MSTORE PUSH1 0x0 SWAP1 DUP3 SWAP1 ADDRESS SWAP1 PUSH4 0xF135F234 SWAP1 PUSH1 0x24 ADD PUSH1 0x20 PUSH1 0x40 MLOAD DUP1 DUP4 SUB DUP2 DUP7 GAS STATICCALL ISZERO DUP1 ISZERO PUSH2 0x45A JUMPI RETURNDATASIZE PUSH1 0x0 DUP1 RETURNDATACOPY RETURNDATASIZE PUSH1 0x0 REVERT JUMPDEST POP POP POP POP PUSH1 0x40 MLOAD RETURNDATASIZE PUSH1 0x1F NOT PUSH1 0x1F DUP3 ADD AND DUP3 ADD DUP1 PUSH1 0x40 MSTORE POP DUP2 ADD SWAP1 PUSH2 0x47E SWAP2 SWAP1 PUSH2 0xB10 JUMP JUMPDEST LT ISZERO SWAP1 POP JUMPDEST SWAP3 SWAP2 POP POP JUMP JUMPDEST PUSH1 0x0 DUP1 PUSH1 0x0 DUP1 PUSH32 0x0 PUSH1 0x1 PUSH1 0x1 PUSH1 0xA0 SHL SUB AND PUSH4 0xB385565B DUP7 PUSH1 0x40 MLOAD DUP3 PUSH4 0xFFFFFFFF AND PUSH1 0xE0 SHL DUP2 MSTORE PUSH1 0x4 ADD PUSH2 0x4DD SWAP2 DUP2 MSTORE PUSH1 0x20 ADD SWAP1 JUMP JUMPDEST PUSH1 0x0 PUSH1 0x40 MLOAD DUP1 DUP4 SUB DUP2 DUP7 GAS STATICCALL ISZERO DUP1 ISZERO PUSH2 0x4FA JUMPI RETURNDATASIZE PUSH1 0x0 DUP1 RETURNDATACOPY RETURNDATASIZE PUSH1 0x0 REVERT JUMPDEST POP POP POP POP PUSH1 0x40 MLOAD RETURNDATASIZE PUSH1 0x0 DUP3 RETURNDATACOPY PUSH1 0x1F RETURNDATASIZE SWAP1 DUP2 ADD PUSH1 0x1F NOT AND DUP3 ADD PUSH1 0x40 MSTORE PUSH2 0x522 SWAP2 SWAP1 DUP2 ADD SWAP1 PUSH2 0xB99 JUMP JUMPDEST SWAP1 POP PUSH1 0x0 JUMPDEST DUP2 MLOAD DUP2 LT ISZERO PUSH2 0x64E JUMPI PUSH1 0x0 PUSH32 0x0 PUSH1 0x1 PUSH1 0x1 PUSH1 0xA0 SHL SUB AND PUSH4 0x1B80BB3A DUP5 DUP5 DUP2 MLOAD DUP2 LT PUSH2 0x573 JUMPI PUSH2 0x573 PUSH2 0xC3F JUMP JUMPDEST PUSH1 0x20 MUL PUSH1 0x20 ADD ADD MLOAD PUSH1 0x40 MLOAD DUP3 PUSH4 0xFFFFFFFF AND PUSH1 0xE0 SHL DUP2 MSTORE PUSH1 0x4 ADD PUSH2 0x599 SWAP2 DUP2 MSTORE PUSH1 0x20 ADD SWAP1 JUMP JUMPDEST PUSH1 0xE0 PUSH1 0x40 MLOAD DUP1 DUP4 SUB DUP2 DUP7 GAS STATICCALL ISZERO DUP1 ISZERO PUSH2 0x5B6 JUMPI RETURNDATASIZE PUSH1 0x0 DUP1 RETURNDATACOPY RETURNDATASIZE PUSH1 0x0 REVERT JUMPDEST POP POP POP POP PUSH1 0x40 MLOAD RETURNDATASIZE PUSH1 0x1F NOT PUSH1 0x1F DUP3 ADD AND DUP3 ADD DUP1 PUSH1 0x40 MSTORE POP DUP2 ADD SWAP1 PUSH2 0x5DA SWAP2 SWAP1 PUSH2 0xC6B JUMP JUMPDEST SWAP1 POP DUP1 PUSH1 0xC0 ADD MLOAD PUSH1 0xFF AND PUSH1 0x1 SUB PUSH2 0x5FD JUMPI DUP6 PUSH2 0x5F5 DUP2 PUSH2 0xCFF JUMP JUMPDEST SWAP7 POP POP PUSH2 0x63B JUMP JUMPDEST DUP1 PUSH1 0xC0 ADD MLOAD PUSH1 0xFF AND PUSH1 0x2 SUB PUSH2 0x61E JUMPI DUP5 PUSH2 0x616 DUP2 PUSH2 0xCFF JUMP JUMPDEST SWAP6 POP POP PUSH2 0x63B JUMP JUMPDEST DUP1 PUSH1 0xC0 ADD MLOAD PUSH1 0xFF AND PUSH1 0x3 SUB PUSH2 0x63B JUMPI DUP4 PUSH2 0x637 DUP2 PUSH2 0xCFF JUMP JUMPDEST SWAP5 POP POP JUMPDEST POP DUP1 PUSH2 0x646 DUP2 PUSH2 0xCFF JUMP JUMPDEST SWAP2 POP POP PUSH2 0x527 JUMP JUMPDEST POP POP SWAP2 SWAP4 SWAP1 SWAP3 POP JUMP JUMPDEST PUSH1 0x40 MLOAD PUSH4 0xB385565B PUSH1 0xE0 SHL DUP2 MSTORE PUSH1 0x4 DUP2 ADD DUP3 SWAP1 MSTORE PUSH1 0x0 SWAP1 DUP2 SWAP1 PUSH1 0x1 PUSH1 0x1 PUSH1 0xA0 SHL SUB PUSH32 0x0 AND SWAP1 PUSH4 0xB385565B SWAP1 PUSH1 0x24 ADD PUSH1 0x0 PUSH1 0x40 MLOAD DUP1 DUP4 SUB DUP2 DUP7 GAS STATICCALL ISZERO DUP1 ISZERO PUSH2 0x6C1 JUMPI RETURNDATASIZE PUSH1 0x0 DUP1 RETURNDATACOPY RETURNDATASIZE PUSH1 0x0 REVERT JUMPDEST POP POP POP POP PUSH1 0x40 MLOAD RETURNDATASIZE PUSH1 0x0 DUP3 RETURNDATACOPY PUSH1 0x1F RETURNDATASIZE SWAP1 DUP2 ADD PUSH1 0x1F NOT AND DUP3 ADD PUSH1 0x40 MSTORE PUSH2 0x6E9 SWAP2 SWAP1 DUP2 ADD SWAP1 PUSH2 0xB99 JUMP JUMPDEST SWAP1 POP PUSH1 0x0 JUMPDEST DUP2 MLOAD DUP2 LT ISZERO PUSH2 0x846 JUMPI PUSH1 0x0 PUSH32 0x0 PUSH1 0x1 PUSH1 0x1 PUSH1 0xA0 SHL SUB AND PUSH4 0x1B80BB3A DUP5 DUP5 DUP2 MLOAD DUP2 LT PUSH2 0x73A JUMPI PUSH2 0x73A PUSH2 0xC3F JUMP JUMPDEST PUSH1 0x20 MUL PUSH1 0x20 ADD ADD MLOAD PUSH1 0x40 MLOAD DUP3 PUSH4 0xFFFFFFFF AND PUSH1 0xE0 SHL DUP2 MSTORE PUSH1 0x4 ADD PUSH2 0x760 SWAP2 DUP2 MSTORE PUSH1 0x20 ADD SWAP1 JUMP JUMPDEST PUSH1 0xE0 PUSH1 0x40 MLOAD DUP1 DUP4 SUB DUP2 DUP7 GAS STATICCALL ISZERO DUP1 ISZERO PUSH2 0x77D JUMPI RETURNDATASIZE PUSH1 0x0 DUP1 RETURNDATACOPY RETURNDATASIZE PUSH1 0x0 REVERT JUMPDEST POP POP POP POP PUSH1 0x40 MLOAD RETURNDATASIZE PUSH1 0x1F NOT PUSH1 0x1F DUP3 ADD AND DUP3 ADD DUP1 PUSH1 0x40 MSTORE POP DUP2 ADD SWAP1 PUSH2 0x7A1 SWAP2 SWAP1 PUSH2 0xC6B JUMP JUMPDEST PUSH1 0x40 DUP1 DUP3 ADD MLOAD PUSH1 0x20 DUP1 DUP5 ADD MLOAD PUSH1 0x0 SWAP1 DUP2 MSTORE SWAP1 DUP2 SWAP1 MSTORE SWAP2 DUP3 KECCAK256 SLOAD SWAP3 SWAP4 POP SWAP2 SWAP1 DUP2 SWAP1 SUB PUSH2 0x7CB JUMPI POP PUSH2 0x2710 JUMPDEST PUSH1 0x0 PUSH2 0x7DA DUP5 PUSH1 0xC0 ADD MLOAD PUSH2 0xA13 JUMP JUMPDEST SWAP1 POP PUSH1 0x0 PUSH2 0x7EB DUP6 PUSH1 0xA0 ADD MLOAD PUSH2 0xA5A JUMP JUMPDEST SWAP1 POP PUSH1 0x0 PUSH5 0xE8D4A51000 DUP3 DUP5 PUSH2 0x801 DUP8 DUP10 PUSH2 0xD18 JUMP JUMPDEST PUSH2 0x80B SWAP2 SWAP1 PUSH2 0xD18 JUMP JUMPDEST PUSH2 0x815 SWAP2 SWAP1 PUSH2 0xD18 JUMP JUMPDEST PUSH2 0x81F SWAP2 SWAP1 PUSH2 0xD2F JUMP JUMPDEST SWAP1 POP PUSH2 0x82B DUP2 DUP11 PUSH2 0xD51 JUMP JUMPDEST SWAP9 POP POP POP POP POP POP POP DUP1 DUP1 PUSH2 0x83E SWAP1 PUSH2 0xCFF JUMP JUMPDEST SWAP2 POP POP PUSH2 0x6EE JUMP JUMPDEST POP POP SWAP2 SWAP1 POP JUMP JUMPDEST PUSH1 0x0 DUP1 PUSH1 0x0 PUSH32 0x0 PUSH1 0x1 PUSH1 0x1 PUSH1 0xA0 SHL SUB AND PUSH4 0xB385565B DUP7 PUSH1 0x40 MLOAD DUP3 PUSH4 0xFFFFFFFF AND PUSH1 0xE0 SHL DUP2 MSTORE PUSH1 0x4 ADD PUSH2 0x8A0 SWAP2 DUP2 MSTORE PUSH1 0x20 ADD SWAP1 JUMP JUMPDEST PUSH1 0x0 PUSH1 0x40 MLOAD DUP1 DUP4 SUB DUP2 DUP7 GAS STATICCALL ISZERO DUP1 ISZERO PUSH2 0x8BD JUMPI RETURNDATASIZE PUSH1 0x0 DUP1 RETURNDATACOPY RETURNDATASIZE PUSH1 0x0 REVERT JUMPDEST POP POP POP POP PUSH1 0x40 MLOAD RETURNDATASIZE PUSH1 0x0 DUP3 RETURNDATACOPY PUSH1 0x1F RETURNDATASIZE SWAP1 DUP2 ADD PUSH1 0x1F NOT AND DUP3 ADD PUSH1 0x40 MSTORE PUSH2 0x8E5 SWAP2 SWAP1 DUP2 ADD SWAP1 PUSH2 0xB99 JUMP JUMPDEST SWAP1 POP PUSH1 0x0 JUMPDEST DUP2 MLOAD DUP2 LT ISZERO PUSH2 0xA0A JUMPI PUSH1 0x0 PUSH32 0x0 PUSH1 0x1 PUSH1 0x1 PUSH1 0xA0 SHL SUB AND PUSH4 0x1B80BB3A DUP5 DUP5 DUP2 MLOAD DUP2 LT PUSH2 0x936 JUMPI PUSH2 0x936 PUSH2 0xC3F JUMP JUMPDEST PUSH1 0x20 MUL PUSH1 0x20 ADD ADD MLOAD PUSH1 0x40 MLOAD DUP3 PUSH4 0xFFFFFFFF AND PUSH1 0xE0 SHL DUP2 MSTORE PUSH1 0x4 ADD PUSH2 0x95C SWAP2 DUP2 MSTORE PUSH1 0x20 ADD SWAP1 JUMP JUMPDEST PUSH1 0xE0 PUSH1 0x40 MLOAD DUP1 DUP4 SUB DUP2 DUP7 GAS STATICCALL ISZERO DUP1 ISZERO PUSH2 0x979 JUMPI RETURNDATASIZE PUSH1 0x0 DUP1 RETURNDATACOPY RETURNDATASIZE PUSH1 0x0 REVERT JUMPDEST POP POP POP POP PUSH1 0x40 MLOAD RETURNDATASIZE PUSH1 0x1F NOT PUSH1 0x1F DUP3 ADD AND DUP3 ADD DUP1 PUSH1 0x40 MSTORE POP DUP2 ADD SWAP1 PUSH2 0x99D SWAP2 SWAP1 PUSH2 0xC6B JUMP JUMPDEST SWAP1 POP DUP6 DUP2 PUSH1 0x20 ADD MLOAD SUB PUSH2 0x9F7 JUMPI PUSH1 0x40 DUP2 ADD MLOAD PUSH2 0x9B9 SWAP1 DUP7 PUSH2 0xD51 JUMP JUMPDEST SWAP5 POP PUSH1 0x0 PUSH2 0x9CA DUP3 PUSH1 0xC0 ADD MLOAD PUSH2 0xA13 JUMP JUMPDEST SWAP1 POP PUSH2 0x2710 DUP2 DUP4 PUSH1 0x40 ADD MLOAD PUSH2 0x9DF SWAP2 SWAP1 PUSH2 0xD18 JUMP JUMPDEST PUSH2 0x9E9 SWAP2 SWAP1 PUSH2 0xD2F JUMP JUMPDEST PUSH2 0x9F3 SWAP1 DUP7 PUSH2 0xD51 JUMP JUMPDEST SWAP5 POP POP JUMPDEST POP DUP1 PUSH2 0xA02 DUP2 PUSH2 0xCFF JUMP JUMPDEST SWAP2 POP POP PUSH2 0x8EA JUMP JUMPDEST POP POP SWAP3 POP SWAP3 SWAP1 POP JUMP JUMPDEST PUSH1 0x0 DUP2 PUSH1 0xFF AND PUSH1 0x1 SUB PUSH2 0xA29 JUMPI POP PUSH2 0x2710 SWAP2 SWAP1 POP JUMP JUMPDEST DUP2 PUSH1 0xFF AND PUSH1 0x2 SUB PUSH2 0xA3D JUMPI POP PUSH2 0x1388 SWAP2 SWAP1 POP JUMP JUMPDEST DUP2 PUSH1 0xFF AND PUSH1 0x3 SUB PUSH2 0xA51 JUMPI POP PUSH2 0x3E8 SWAP2 SWAP1 POP JUMP JUMPDEST POP PUSH2 0x3E8 SWAP2 SWAP1 POP JUMP JUMPDEST PUSH1 0x0 DUP2 PUSH8 0xFFFFFFFFFFFFFFFF AND TIMESTAMP GT PUSH2 0xA76 JUMPI POP PUSH2 0x2710 SWAP2 SWAP1 POP JUMP JUMPDEST PUSH1 0x0 PUSH2 0xA8C PUSH8 0xFFFFFFFFFFFFFFFF DUP5 AND TIMESTAMP PUSH2 0xD64 JUMP JUMPDEST SWAP1 POP PUSH1 0x0 PUSH4 0x1E13380 PUSH2 0xAA1 PUSH2 0x3E8 DUP5 PUSH2 0xD18 JUMP JUMPDEST PUSH2 0xAAB SWAP2 SWAP1 PUSH2 0xD2F JUMP JUMPDEST SWAP1 POP PUSH2 0x2328 DUP2 LT PUSH2 0xAC1 JUMPI POP PUSH2 0x3E8 SWAP4 SWAP3 POP POP POP JUMP JUMPDEST PUSH2 0xACD DUP2 PUSH2 0x2710 PUSH2 0xD64 JUMP JUMPDEST SWAP5 SWAP4 POP POP POP POP JUMP JUMPDEST PUSH1 0x0 PUSH1 0x20 DUP3 DUP5 SUB SLT ISZERO PUSH2 0xAE7 JUMPI PUSH1 0x0 DUP1 REVERT JUMPDEST POP CALLDATALOAD SWAP2 SWAP1 POP JUMP JUMPDEST PUSH1 0x0 DUP1 PUSH1 0x40 DUP4 DUP6 SUB SLT ISZERO PUSH2 0xB01 JUMPI PUSH1 0x0 DUP1 REVERT JUMPDEST POP POP DUP1 CALLDATALOAD SWAP3 PUSH1 0x20 SWAP1 SWAP2 ADD CALLDATALOAD SWAP2 POP JUMP JUMPDEST PUSH1 0x0 PUSH1 0x20 DUP3 DUP5 SUB SLT ISZERO PUSH2 0xB22 JUMPI PUSH1 0x0 DUP1 REVERT JUMPDEST POP MLOAD SWAP2 SWAP1 POP JUMP JUMPDEST PUSH4 0x4E487B71 PUSH1 0xE0 SHL PUSH1 0x0 MSTORE PUSH1 0x41 PUSH1 0x4 MSTORE PUSH1 0x24 PUSH1 0x0 REVERT JUMPDEST PUSH1 0x40 MLOAD PUSH1 0xE0 DUP2 ADD PUSH8 0xFFFFFFFFFFFFFFFF DUP2 GT DUP3 DUP3 LT OR ISZERO PUSH2 0xB62 JUMPI PUSH2 0xB62 PUSH2 0xB29 JUMP JUMPDEST PUSH1 0x40 MSTORE SWAP1 JUMP JUMPDEST PUSH1 0x40 MLOAD PUSH1 0x1F DUP3 ADD PUSH1 0x1F NOT AND DUP2 ADD PUSH8 0xFFFFFFFFFFFFFFFF DUP2 GT DUP3 DUP3 LT OR ISZERO PUSH2 0xB91 JUMPI PUSH2 0xB91 PUSH2 0xB29 JUMP JUMPDEST PUSH1 0x40 MSTORE SWAP2 SWAP1 POP JUMP JUMPDEST PUSH1 0x0 PUSH1 0x20 DUP1 DUP4 DUP6 SUB SLT ISZERO PUSH2 0xBAC JUMPI PUSH1 0x0 DUP1 REVERT JUMPDEST DUP3 MLOAD PUSH8 0xFFFFFFFFFFFFFFFF DUP1 DUP3 GT ISZERO PUSH2 0xBC4 JUMPI PUSH1 0x0 DUP1 REVERT JUMPDEST DUP2 DUP6 ADD SWAP2 POP DUP6 PUSH1 0x1F DUP4 ADD SLT PUSH2 0xBD8 JUMPI PUSH1 0x0 DUP1 REVERT JUMPDEST DUP2 MLOAD DUP2 DUP2 GT ISZERO PUSH2 0xBEA JUMPI PUSH2 0xBEA PUSH2 0xB29 JUMP JUMPDEST DUP1 PUSH1 0x5 SHL SWAP2 POP PUSH2 0xBFB DUP5 DUP4 ADD PUSH2 0xB68 JUMP JUMPDEST DUP2 DUP2 MSTORE SWAP2 DUP4 ADD DUP5 ADD SWAP2 DUP5 DUP2 ADD SWAP1 DUP9 DUP5 GT ISZERO PUSH2 0xC15 JUMPI PUSH1 0x0 DUP1 REVERT JUMPDEST SWAP4 DUP6 ADD SWAP4 JUMPDEST DUP4 DUP6 LT ISZERO PUSH2 0xC33 JUMPI DUP5 MLOAD DUP3 MSTORE SWAP4 DUP6 ADD SWAP4 SWAP1 DUP6 ADD SWAP1 PUSH2 0xC1A JUMP JUMPDEST SWAP9 SWAP8 POP POP POP POP POP POP POP POP JUMP JUMPDEST PUSH4 0x4E487B71 PUSH1 0xE0 SHL PUSH1 0x0 MSTORE PUSH1 0x32 PUSH1 0x4 MSTORE PUSH1 0x24 PUSH1 0x0 REVERT JUMPDEST DUP1 MLOAD PUSH1 0xFF DUP2 AND DUP2 EQ PUSH2 0xC66 JUMPI PUSH1 0x0 DUP1 REVERT JUMPDEST SWAP2 SWAP1 POP JUMP JUMPDEST PUSH1 0x0 PUSH1 0xE0 DUP3 DUP5 SUB SLT ISZERO PUSH2 0xC7D JUMPI PUSH1 0x0 DUP1 REVERT JUMPDEST PUSH2 0xC85 PUSH2 0xB3F JUMP JUMPDEST DUP3 MLOAD DUP2 MSTORE PUSH1 0x20 DUP4 ADD MLOAD PUSH1 0x20 DUP3 ADD MSTORE PUSH1 0x40 DUP4 ADD MLOAD PUSH1 0x40 DUP3 ADD MSTORE PUSH1 0x60 DUP4 ADD MLOAD PUSH1 0x60 DUP3 ADD MSTORE PUSH1 0x80 DUP4 ADD MLOAD PUSH1 0x80 DUP3 ADD MSTORE PUSH1 0xA0 DUP4 ADD MLOAD PUSH8 0xFFFFFFFFFFFFFFFF DUP2 AND DUP2 EQ PUSH2 0xCCC JUMPI PUSH1 0x0 DUP1 REVERT JUMPDEST PUSH1 0xA0 DUP3 ADD MSTORE PUSH2 0xCDD PUSH1 0xC0 DUP5 ADD PUSH2 0xC55 JUMP JUMPDEST PUSH1 0xC0 DUP3 ADD MSTORE SWAP4 SWAP3 POP POP POP JUMP JUMPDEST PUSH4 0x4E487B71 PUSH1 0xE0 SHL PUSH1 0x0 MSTORE PUSH1 0x11 PUSH1 0x4 MSTORE PUSH1 0x24 PUSH1 0x0 REVERT JUMPDEST PUSH1 0x0 PUSH1 0x1 DUP3 ADD PUSH2 0xD11 JUMPI PUSH2 0xD11 PUSH2 0xCE9 JUMP JUMPDEST POP PUSH1 0x1 ADD SWAP1 JUMP JUMPDEST DUP1 DUP3 MUL DUP2 ISZERO DUP3 DUP3 DIV DUP5 EQ OR PUSH2 0x483 JUMPI PUSH2 0x483 PUSH2 0xCE9 JUMP JUMPDEST PUSH1 0x0 DUP3 PUSH2 0xD4C JUMPI PUSH4 0x4E487B71 PUSH1 0xE0 SHL PUSH1 0x0 MSTORE PUSH1 0x12 PUSH1 0x4 MSTORE PUSH1 0x24 PUSH1 0x0 REVERT JUMPDEST POP DIV SWAP1 JUMP JUMPDEST DUP1 DUP3 ADD DUP1 DUP3 GT ISZERO PUSH2 0x483 JUMPI PUSH2 0x483 PUSH2 0xCE9 JUMP JUMPDEST DUP2 DUP2 SUB DUP2 DUP2 GT ISZERO PUSH2 0x483 JUMPI PUSH2 0x483 PUSH2 0xCE9 JUMP INVALID LOG2 PUSH5 0x6970667358 0x22 SLT KECCAK256 0x49 BYTE 0xB7 PUSH8 0x64F3FA2A4506312 XOR CALL 0xA7 0xD5 SWAP11 0xA7 0x2E 0x26 CALLDATACOPY 0xD6 EXTCODESIZE ISZERO 0xA5 PUSH32 0xCC2428D528FB64736F6C63430008140033000000000000000000000000000000 "},"methodIdentifiers":{"CO2E_AVOIDED()":"9e9466a1","DECAY_RATE_BPS_PER_YEAR()":"cd5e4ae7","EV_CHARGING()":"83872d2f","RENEWABLE_ENERGY()":"ae0534d8","SECONDS_PER_YEAR()":"e6a69ab8","SUSTAINABLE_PURCHASE()":"3767eb07","TIER_A_MULTIPLIER()":"cd9166e9","TIER_B_MULTIPLIER()":"0359cc0a","TIER_C_MULTIPLIER()":"3223f256","TREES_PLANTED()":"b33b9de5","getHumanLevel(bytes32)":"5a03de47","getHumanScore(bytes32)":"f135f234","getImpactBreakdown(bytes32,bytes32)":"f42210f6","getProofCountByTier(bytes32)":"d8141862","humanIdentity()":"701a78b7","impactWeights(bytes32)":"212cb0a5","meetsThreshold(bytes32,uint256)":"b1e97fc4","proofRegistry()":"af1bd827"}}}}}