{
  "_format": "hh-sol-artifact-1",
  "contractName": "ProofRegistry",
  "sourceName": "contracts/ProofRegistry.sol",
  "abi": [
    {
      "inputs": [
        {
          "internalType": "address",
          "name": "_humanIdentity",
          "type": "address"
        }
      ],
      "stateMutability": "nonpayable",
      "type": "constructor"
    },
    {
      "inputs": [],
      "name": "HumanNotRegistered",
      "type": "error"
    },
    {
      "inputs": [],
      "name": "InvalidProofData",
      "type": "error"
    },
    {
      "inputs": [],
      "name": "InvalidSignature",
      "type": "error"
    },
    {
      "inputs": [],
      "name": "OnlyOwner",
      "type": "error"
    },
    {
      "inputs": [],
      "name": "UnauthorizedOracle",
      "type": "error"
    },
    {
      "inputs": [],
      "name": "VerificationAlreadyUsed",
      "type": "error"
    },
    {
      "anonymous": false,
      "inputs": [
        {
          "indexed": true,
          "internalType": "address",
          "name": "oracle",
          "type": "address"
        },
        {
          "indexed": false,
          "internalType": "bool",
          "name": "authorized",
          "type": "bool"
        }
      ],
      "name": "OracleAuthorized",
      "type": "event"
    },
    {
      "anonymous": false,
      "inputs": [
        {
          "indexed": true,
          "internalType": "address",
          "name": "previousOwner",
          "type": "address"
        },
        {
          "indexed": true,
          "internalType": "address",
          "name": "newOwner",
          "type": "address"
        }
      ],
      "name": "OwnershipTransferred",
      "type": "event"
    },
    {
      "anonymous": false,
      "inputs": [
        {
          "indexed": true,
          "internalType": "bytes32",
          "name": "humanId",
          "type": "bytes32"
        },
        {
          "indexed": true,
          "internalType": "bytes32",
          "name": "proofId",
          "type": "bytes32"
        },
        {
          "indexed": true,
          "internalType": "bytes32",
          "name": "impactType",
          "type": "bytes32"
        },
        {
          "indexed": false,
          "internalType": "uint256",
          "name": "impactValue",
          "type": "uint256"
        },
        {
          "indexed": false,
          "internalType": "uint8",
          "name": "tier",
          "type": "uint8"
        }
      ],
      "name": "ProofRegistered",
      "type": "event"
    },
    {
      "inputs": [
        {
          "internalType": "address",
          "name": "",
          "type": "address"
        }
      ],
      "name": "authorizedOracles",
      "outputs": [
        {
          "internalType": "bool",
          "name": "",
          "type": "bool"
        }
      ],
      "stateMutability": "view",
      "type": "function"
    },
    {
      "inputs": [
        {
          "internalType": "bytes32",
          "name": "humanId",
          "type": "bytes32"
        }
      ],
      "name": "getHumanProofCount",
      "outputs": [
        {
          "internalType": "uint256",
          "name": "",
          "type": "uint256"
        }
      ],
      "stateMutability": "view",
      "type": "function"
    },
    {
      "inputs": [
        {
          "internalType": "bytes32",
          "name": "humanId",
          "type": "bytes32"
        }
      ],
      "name": "getHumanProofIds",
      "outputs": [
        {
          "internalType": "bytes32[]",
          "name": "",
          "type": "bytes32[]"
        }
      ],
      "stateMutability": "view",
      "type": "function"
    },
    {
      "inputs": [
        {
          "internalType": "bytes32",
          "name": "proofId",
          "type": "bytes32"
        }
      ],
      "name": "getProof",
      "outputs": [
        {
          "components": [
            {
              "internalType": "bytes32",
              "name": "humanId",
              "type": "bytes32"
            },
            {
              "internalType": "bytes32",
              "name": "impactType",
              "type": "bytes32"
            },
            {
              "internalType": "uint256",
              "name": "impactValue",
              "type": "uint256"
            },
            {
              "internalType": "bytes32",
              "name": "methodologyHash",
              "type": "bytes32"
            },
            {
              "internalType": "bytes32",
              "name": "verificationHash",
              "type": "bytes32"
            },
            {
              "internalType": "uint64",
              "name": "timestamp",
              "type": "uint64"
            },
            {
              "internalType": "uint8",
              "name": "tier",
              "type": "uint8"
            }
          ],
          "internalType": "struct ProofRegistry.Proof",
          "name": "",
          "type": "tuple"
        }
      ],
      "stateMutability": "view",
      "type": "function"
    },
    {
      "inputs": [
        {
          "internalType": "bytes32",
          "name": "humanId",
          "type": "bytes32"
        },
        {
          "internalType": "bytes32",
          "name": "impactType",
          "type": "bytes32"
        }
      ],
      "name": "getTotalImpact",
      "outputs": [
        {
          "internalType": "uint256",
          "name": "",
          "type": "uint256"
        }
      ],
      "stateMutability": "view",
      "type": "function"
    },
    {
      "inputs": [],
      "name": "humanIdentity",
      "outputs": [
        {
          "internalType": "contract IHumanIdentity",
          "name": "",
          "type": "address"
        }
      ],
      "stateMutability": "view",
      "type": "function"
    },
    {
      "inputs": [
        {
          "internalType": "bytes32",
          "name": "",
          "type": "bytes32"
        },
        {
          "internalType": "uint256",
          "name": "",
          "type": "uint256"
        }
      ],
      "name": "humanProofs",
      "outputs": [
        {
          "internalType": "bytes32",
          "name": "",
          "type": "bytes32"
        }
      ],
      "stateMutability": "view",
      "type": "function"
    },
    {
      "inputs": [],
      "name": "owner",
      "outputs": [
        {
          "internalType": "address",
          "name": "",
          "type": "address"
        }
      ],
      "stateMutability": "view",
      "type": "function"
    },
    {
      "inputs": [
        {
          "internalType": "bytes32",
          "name": "",
          "type": "bytes32"
        }
      ],
      "name": "proofs",
      "outputs": [
        {
          "internalType": "bytes32",
          "name": "humanId",
          "type": "bytes32"
        },
        {
          "internalType": "bytes32",
          "name": "impactType",
          "type": "bytes32"
        },
        {
          "internalType": "uint256",
          "name": "impactValue",
          "type": "uint256"
        },
        {
          "internalType": "bytes32",
          "name": "methodologyHash",
          "type": "bytes32"
        },
        {
          "internalType": "bytes32",
          "name": "verificationHash",
          "type": "bytes32"
        },
        {
          "internalType": "uint64",
          "name": "timestamp",
          "type": "uint64"
        },
        {
          "internalType": "uint8",
          "name": "tier",
          "type": "uint8"
        }
      ],
      "stateMutability": "view",
      "type": "function"
    },
    {
      "inputs": [
        {
          "internalType": "address",
          "name": "oracle",
          "type": "address"
        },
        {
          "internalType": "bool",
          "name": "authorized",
          "type": "bool"
        }
      ],
      "name": "setOracleAuthorization",
      "outputs": [],
      "stateMutability": "nonpayable",
      "type": "function"
    },
    {
      "inputs": [
        {
          "internalType": "bytes32",
          "name": "humanId",
          "type": "bytes32"
        },
        {
          "internalType": "bytes32",
          "name": "impactType",
          "type": "bytes32"
        },
        {
          "internalType": "uint256",
          "name": "impactValue",
          "type": "uint256"
        },
        {
          "internalType": "bytes32",
          "name": "methodologyHash",
          "type": "bytes32"
        },
        {
          "internalType": "bytes32",
          "name": "verificationHash",
          "type": "bytes32"
        },
        {
          "internalType": "uint64",
          "name": "timestamp",
          "type": "uint64"
        },
        {
          "internalType": "uint8",
          "name": "tier",
          "type": "uint8"
        },
        {
          "internalType": "bytes",
          "name": "oracleSignature",
          "type": "bytes"
        }
      ],
      "name": "submitProof",
      "outputs": [
        {
          "internalType": "bytes32",
          "name": "proofId",
          "type": "bytes32"
        }
      ],
      "stateMutability": "nonpayable",
      "type": "function"
    },
    {
      "inputs": [],
      "name": "totalProofs",
      "outputs": [
        {
          "internalType": "uint256",
          "name": "",
          "type": "uint256"
        }
      ],
      "stateMutability": "view",
      "type": "function"
    },
    {
      "inputs": [
        {
          "internalType": "address",
          "name": "newOwner",
          "type": "address"
        }
      ],
      "name": "transferOwnership",
      "outputs": [],
      "stateMutability": "nonpayable",
      "type": "function"
    },
    {
      "inputs": [
        {
          "internalType": "bytes32",
          "name": "",
          "type": "bytes32"
        }
      ],
      "name": "usedVerification",
      "outputs": [
        {
          "internalType": "bool",
          "name": "",
          "type": "bool"
        }
      ],
      "stateMutability": "view",
      "type": "function"
    }
  ],
  "bytecode": "0x60a060405234801561001057600080fd5b50604051610d73380380610d7383398101604081905261002f9161006e565b6001600160a01b0316608052600580546001600160a01b031916339081179091556000908152600360205260409020805460ff1916600117905561009e565b60006020828403121561008057600080fd5b81516001600160a01b038116811461009757600080fd5b9392505050565b608051610cb36100c06000396000818161034601526104540152610cb36000f3fe608060405234801561001057600080fd5b50600436106100ea5760003560e01c8063701a78b71161008c578063a4e5864f11610066578063a4e5864f146103b3578063b385565b146103c6578063d5c1a1e1146103e6578063f2fde38b146103fb57600080fd5b8063701a78b7146103415780637e1e7c8f146103805780638da5cb5b146103a057600080fd5b80634ad0e770116100c85780634ad0e770146102c55780634bd566d9146102d8578063580671a51461030b57806361c992a31461031e57600080fd5b80631b80bb3a146100ef5780632ded356814610213578063444d95b01461022a575b600080fd5b6101a76100fd366004610a0d565b6040805160e081018252600080825260208201819052918101829052606081018290526080810182905260a0810182905260c08101919091525060009081526020818152604091829020825160e08101845281548152600182015492810192909252600281015492820192909252600382015460608201526004820154608082015260059091015467ffffffffffffffff811660a0830152600160401b900460ff1660c082015290565b60405161020a9190600060e082019050825182526020830151602083015260408301516040830152606083015160608301526080830151608083015267ffffffffffffffff60a08401511660a083015260ff60c08401511660c083015292915050565b60405180910390f35b61021c60045481565b60405190815260200161020a565b610283610238366004610a0d565b600060208190529081526040902080546001820154600283015460038401546004850154600590950154939492939192909167ffffffffffffffff811690600160401b900460ff1687565b604080519788526020880196909652948601939093526060850191909152608084015267ffffffffffffffff1660a083015260ff1660c082015260e00161020a565b61021c6102d3366004610a6f565b61040e565b6102fb6102e6366004610a0d565b60026020526000908152604090205460ff1681565b604051901515815260200161020a565b61021c610319366004610b1c565b610745565b6102fb61032c366004610b5a565b60036020526000908152604090205460ff1681565b6103687f000000000000000000000000000000000000000000000000000000000000000081565b6040516001600160a01b03909116815260200161020a565b61021c61038e366004610a0d565b60009081526001602052604090205490565b600554610368906001600160a01b031681565b61021c6103c1366004610b1c565b610776565b6103d96103d4366004610a0d565b6108a4565b60405161020a9190610b7c565b6103f96103f4366004610bd1565b610906565b005b6103f9610409366004610b5a565b610990565b3360009081526003602052604081205460ff1661043e5760405163db8d1fb760e01b815260040160405180910390fd5b604051639c1bed5960e01b8152600481018b90527f00000000000000000000000000000000000000000000000000000000000000006001600160a01b031690639c1bed5990602401602060405180830381865afa1580156104a3573d6000803e3d6000fd5b505050506040513d601f19601f820116820180604052508101906104c79190610c08565b6104e45760405163377c2c6b60e21b815260040160405180910390fd5b60008681526002602052604090205460ff161561051457604051638308abfb60e01b815260040160405180910390fd5b87600003610535576040516371f4a19360e11b815260040160405180910390fd5b60ff84161580610548575060038460ff16115b15610566576040516371f4a19360e11b815260040160405180910390fd5b60045460408051602081018d9052908101889052466060820152608081019190915260a0016040516020818303038152906040528051906020012090506040518060e001604052808b81526020018a81526020018981526020018881526020018781526020018667ffffffffffffffff1681526020018560ff16815250600080838152602001908152602001600020600082015181600001556020820151816001015560408201518160020155606082015181600301556080820151816004015560a08201518160050160006101000a81548167ffffffffffffffff021916908367ffffffffffffffff16021790555060c08201518160050160086101000a81548160ff021916908360ff160217905550905050600160008b815260200190815260200160002081908060018154018082558091505060019003906000526020600020016000909190919091505560016002600088815260200190815260200160002060006101000a81548160ff0219169083151502179055506004600081546001019190508190555088818b7fb59717e76085e0c5d8c793c91cfdb89b986ab5ca6979708258b350ef685d82648b8860405161073092919091825260ff16602082015260400190565b60405180910390a49998505050505050505050565b6001602052816000526040600020818154811061076157600080fd5b90600052602060002001600091509150505481565b6000828152600160209081526040808320805482518185028101850190935280835284938301828280156107c957602002820191906000526020600020905b8154815260200190600101908083116107b5575b505050505090506000805b82518110156108995760008060008584815181106107f4576107f4610c25565b6020908102919091018101518252818101929092526040908101600020815160e08101835281548152600182015493810184905260028201549281019290925260038101546060830152600481015460808301526005015467ffffffffffffffff811660a0830152600160401b900460ff1660c082015291508690036108865760408101516108839084610c51565b92505b508061089181610c64565b9150506107d4565b509150505b92915050565b6000818152600160209081526040918290208054835181840281018401909452808452606093928301828280156108fa57602002820191906000526020600020905b8154815260200190600101908083116108e6575b50505050509050919050565b6005546001600160a01b0316331461093157604051635fc483c560e01b815260040160405180910390fd5b6001600160a01b038216600081815260036020908152604091829020805460ff191685151590811790915591519182527f82a8fb1e779ea45ad427cc612e47087f5386a567e49dce488185e40646fa48d5910160405180910390a25050565b6005546001600160a01b031633146109bb57604051635fc483c560e01b815260040160405180910390fd5b600580546001600160a01b038381166001600160a01b0319831681179093556040519116919082907f8be0079c531659141344cd1fd0a4f28419497f9722a3daafe3b4186f6b6457e090600090a35050565b600060208284031215610a1f57600080fd5b5035919050565b60008083601f840112610a3857600080fd5b50813567ffffffffffffffff811115610a5057600080fd5b602083019150836020828501011115610a6857600080fd5b9250929050565b60008060008060008060008060006101008a8c031215610a8e57600080fd5b8935985060208a0135975060408a0135965060608a0135955060808a0135945060a08a013567ffffffffffffffff8082168214610aca57600080fd5b90945060c08b01359060ff82168214610ae257600080fd5b90935060e08b01359080821115610af857600080fd5b50610b058c828d01610a26565b915080935050809150509295985092959850929598565b60008060408385031215610b2f57600080fd5b50508035926020909101359150565b80356001600160a01b0381168114610b5557600080fd5b919050565b600060208284031215610b6c57600080fd5b610b7582610b3e565b9392505050565b6020808252825182820181905260009190848201906040850190845b81811015610bb457835183529284019291840191600101610b98565b50909695505050505050565b8015158114610bce57600080fd5b50565b60008060408385031215610be457600080fd5b610bed83610b3e565b91506020830135610bfd81610bc0565b809150509250929050565b600060208284031215610c1a57600080fd5b8151610b7581610bc0565b634e487b7160e01b600052603260045260246000fd5b634e487b7160e01b600052601160045260246000fd5b8082018082111561089e5761089e610c3b565b600060018201610c7657610c76610c3b565b506001019056fea2646970667358221220026e39b33558af0e3cb40cdda64bf644c87db310fe4551bee8b3176916ce111a64736f6c63430008140033",
  "linkReferences": {},
  "deployedLinkReferences": {}
}