{
  "_format": "hh-sol-artifact-1",
  "contractName": "HumanScore",
  "sourceName": "contracts/HumanScore.sol",
  "abi": [
    {
      "inputs": [
        {
          "internalType": "address",
          "name": "_humanIdentity",
          "type": "address"
        },
        {
          "internalType": "address",
          "name": "_proofRegistry",
          "type": "address"
        }
      ],
      "stateMutability": "nonpayable",
      "type": "constructor"
    },
    {
      "anonymous": false,
      "inputs": [
        {
          "indexed": true,
          "internalType": "bytes32",
          "name": "impactType",
          "type": "bytes32"
        },
        {
          "indexed": false,
          "internalType": "uint256",
          "name": "weight",
          "type": "uint256"
        }
      ],
      "name": "ImpactWeightUpdated",
      "type": "event"
    },
    {
      "inputs": [],
      "name": "CO2E_AVOIDED",
      "outputs": [
        {
          "internalType": "bytes32",
          "name": "",
          "type": "bytes32"
        }
      ],
      "stateMutability": "view",
      "type": "function"
    },
    {
      "inputs": [],
      "name": "DECAY_RATE_BPS_PER_YEAR",
      "outputs": [
        {
          "internalType": "uint256",
          "name": "",
          "type": "uint256"
        }
      ],
      "stateMutability": "view",
      "type": "function"
    },
    {
      "inputs": [],
      "name": "EV_CHARGING",
      "outputs": [
        {
          "internalType": "bytes32",
          "name": "",
          "type": "bytes32"
        }
      ],
      "stateMutability": "view",
      "type": "function"
    },
    {
      "inputs": [],
      "name": "RENEWABLE_ENERGY",
      "outputs": [
        {
          "internalType": "bytes32",
          "name": "",
          "type": "bytes32"
        }
      ],
      "stateMutability": "view",
      "type": "function"
    },
    {
      "inputs": [],
      "name": "SECONDS_PER_YEAR",
      "outputs": [
        {
          "internalType": "uint256",
          "name": "",
          "type": "uint256"
        }
      ],
      "stateMutability": "view",
      "type": "function"
    },
    {
      "inputs": [],
      "name": "SUSTAINABLE_PURCHASE",
      "outputs": [
        {
          "internalType": "bytes32",
          "name": "",
          "type": "bytes32"
        }
      ],
      "stateMutability": "view",
      "type": "function"
    },
    {
      "inputs": [],
      "name": "TIER_A_MULTIPLIER",
      "outputs": [
        {
          "internalType": "uint256",
          "name": "",
          "type": "uint256"
        }
      ],
      "stateMutability": "view",
      "type": "function"
    },
    {
      "inputs": [],
      "name": "TIER_B_MULTIPLIER",
      "outputs": [
        {
          "internalType": "uint256",
          "name": "",
          "type": "uint256"
        }
      ],
      "stateMutability": "view",
      "type": "function"
    },
    {
      "inputs": [],
      "name": "TIER_C_MULTIPLIER",
      "outputs": [
        {
          "internalType": "uint256",
          "name": "",
          "type": "uint256"
        }
      ],
      "stateMutability": "view",
      "type": "function"
    },
    {
      "inputs": [],
      "name": "TREES_PLANTED",
      "outputs": [
        {
          "internalType": "bytes32",
          "name": "",
          "type": "bytes32"
        }
      ],
      "stateMutability": "view",
      "type": "function"
    },
    {
      "inputs": [
        {
          "internalType": "bytes32",
          "name": "humanId",
          "type": "bytes32"
        }
      ],
      "name": "getHumanLevel",
      "outputs": [
        {
          "internalType": "uint8",
          "name": "level",
          "type": "uint8"
        }
      ],
      "stateMutability": "view",
      "type": "function"
    },
    {
      "inputs": [
        {
          "internalType": "bytes32",
          "name": "humanId",
          "type": "bytes32"
        }
      ],
      "name": "getHumanScore",
      "outputs": [
        {
          "internalType": "uint256",
          "name": "score",
          "type": "uint256"
        }
      ],
      "stateMutability": "view",
      "type": "function"
    },
    {
      "inputs": [
        {
          "internalType": "bytes32",
          "name": "humanId",
          "type": "bytes32"
        },
        {
          "internalType": "bytes32",
          "name": "impactType",
          "type": "bytes32"
        }
      ],
      "name": "getImpactBreakdown",
      "outputs": [
        {
          "internalType": "uint256",
          "name": "totalValue",
          "type": "uint256"
        },
        {
          "internalType": "uint256",
          "name": "weightedValue",
          "type": "uint256"
        }
      ],
      "stateMutability": "view",
      "type": "function"
    },
    {
      "inputs": [
        {
          "internalType": "bytes32",
          "name": "humanId",
          "type": "bytes32"
        }
      ],
      "name": "getProofCountByTier",
      "outputs": [
        {
          "internalType": "uint256",
          "name": "tierA",
          "type": "uint256"
        },
        {
          "internalType": "uint256",
          "name": "tierB",
          "type": "uint256"
        },
        {
          "internalType": "uint256",
          "name": "tierC",
          "type": "uint256"
        }
      ],
      "stateMutability": "view",
      "type": "function"
    },
    {
      "inputs": [],
      "name": "humanIdentity",
      "outputs": [
        {
          "internalType": "contract IHumanIdentity",
          "name": "",
          "type": "address"
        }
      ],
      "stateMutability": "view",
      "type": "function"
    },
    {
      "inputs": [
        {
          "internalType": "bytes32",
          "name": "",
          "type": "bytes32"
        }
      ],
      "name": "impactWeights",
      "outputs": [
        {
          "internalType": "uint256",
          "name": "",
          "type": "uint256"
        }
      ],
      "stateMutability": "view",
      "type": "function"
    },
    {
      "inputs": [
        {
          "internalType": "bytes32",
          "name": "humanId",
          "type": "bytes32"
        },
        {
          "internalType": "uint256",
          "name": "minScore",
          "type": "uint256"
        }
      ],
      "name": "meetsThreshold",
      "outputs": [
        {
          "internalType": "bool",
          "name": "",
          "type": "bool"
        }
      ],
      "stateMutability": "view",
      "type": "function"
    },
    {
      "inputs": [],
      "name": "proofRegistry",
      "outputs": [
        {
          "internalType": "contract ProofRegistry",
          "name": "",
          "type": "address"
        }
      ],
      "stateMutability": "view",
      "type": "function"
    }
  ],
  "bytecode": "0x60c060405234801561001057600080fd5b50604051610f73380380610f7383398101604081905261002f91610144565b6001600160a01b039182166080521660a052600060208190526127107fd135433dca196eb864990465e057132ffcadd9d10983e874df1427dc1184c5978190557ffdc0c8a6735303f03a6abe513ed2498f6938ed112bf66f8f87ff3cfa19223ca655613a987fc1c2e2e5357fc765fb07d68c1f89e3e7027eda4ff45bbe81d8771dd9656eee7a55611f407fe276a7c8b5b914014380d6594e981a24fc83110d9657a4884944afac208a265e557f13430198d57ffc5762557efb57d599c9d34b9f2388bc3db9ced1d5f9a0c1ba7990526113887fc1082515ac2a46f11578aacaa31cf9e54e29545e78173692b11d65a3621710f255610177565b80516001600160a01b038116811461013f57600080fd5b919050565b6000806040838503121561015757600080fd5b61016083610128565b915061016e60208401610128565b90509250929050565b60805160a051610dad6101c66000396000818161026501528181610491015281816105340152818161067a015281816106fb0152818161085401526108f7015260006101b10152610dad6000f3fe608060405234801561001057600080fd5b50600436106101165760003560e01c8063af1bd827116100a2578063cd9166e911610071578063cd9166e9146102d1578063d8141862146102da578063e6a69ab814610308578063f135f23414610313578063f42210f61461032657600080fd5b8063af1bd82714610260578063b1e97fc414610287578063b33b9de5146102aa578063cd5e4ae71461015757600080fd5b80635a03de47116100e95780635a03de4714610187578063701a78b7146101ac57806383872d2f146101eb5780639e9466a114610212578063ae0534d81461023957600080fd5b80630359cc0a1461011b578063212cb0a5146101375780633223f256146101575780633767eb0714610160575b600080fd5b61012461138881565b6040519081526020015b60405180910390f35b610124610145366004610ad5565b60006020819052908152604090205481565b6101246103e881565b6101247f13430198d57ffc5762557efb57d599c9d34b9f2388bc3db9ced1d5f9a0c1ba7981565b61019a610195366004610ad5565b61034e565b60405160ff909116815260200161012e565b6101d37f000000000000000000000000000000000000000000000000000000000000000081565b6040516001600160a01b03909116815260200161012e565b6101247f514ec64fbf29581c69bfa34142c3d3886b01e2fd4edd517f9a3f3c5b1c4ea04281565b6101247f7b3078b4643a2e1bcb01765080deadcd8fe753a6c1ab9a6ce2cfdd6db149345b81565b6101247f142b73925e8bf2e0aa11e45a695345afce4963253ae3b068ef5b55b935c8e13d81565b6101d37f000000000000000000000000000000000000000000000000000000000000000081565b61029a610295366004610aee565b610419565b604051901515815260200161012e565b6101247f484cc3fca059a309d83ae3160cd79770521b2fbf11c656550a18d301bd7f1fd081565b61012461271081565b6102ed6102e8366004610ad5565b610489565b6040805193845260208401929092529082015260600161012e565b6101246301e1338081565b610124610321366004610ad5565b610657565b610339610334366004610aee565b61084d565b6040805192835260208301919091520161012e565b604051633c4d7c8d60e21b8152600481018290526000908190309063f135f23490602401602060405180830381865afa15801561038f573d6000803e3d6000fd5b505050506040513d601f19601f820116820180604052508101906103b39190610b10565b9050620f424081106103c85750600592915050565b620186a081106103db5750600492915050565b61271081106103ed5750600392915050565b6103e881106103ff5750600292915050565b606481106104105750600192915050565b50600092915050565b604051633c4d7c8d60e21b8152600481018390526000908290309063f135f23490602401602060405180830381865afa15801561045a573d6000803e3d6000fd5b505050506040513d601f19601f8201168201806040525081019061047e9190610b10565b101590505b92915050565b6000806000807f00000000000000000000000000000000000000000000000000000000000000006001600160a01b031663b385565b866040518263ffffffff1660e01b81526004016104dd91815260200190565b600060405180830381865afa1580156104fa573d6000803e3d6000fd5b505050506040513d6000823e601f3d908101601f191682016040526105229190810190610b99565b905060005b815181101561064e5760007f00000000000000000000000000000000000000000000000000000000000000006001600160a01b0316631b80bb3a84848151811061057357610573610c3f565b60200260200101516040518263ffffffff1660e01b815260040161059991815260200190565b60e060405180830381865afa1580156105b6573d6000803e3d6000fd5b505050506040513d601f19601f820116820180604052508101906105da9190610c6b565b90508060c0015160ff166001036105fd57856105f581610cff565b96505061063b565b8060c0015160ff1660020361061e578461061681610cff565b95505061063b565b8060c0015160ff1660030361063b578361063781610cff565b9450505b508061064681610cff565b915050610527565b50509193909250565b60405163b385565b60e01b81526004810182905260009081906001600160a01b037f0000000000000000000000000000000000000000000000000000000000000000169063b385565b90602401600060405180830381865afa1580156106c1573d6000803e3d6000fd5b505050506040513d6000823e601f3d908101601f191682016040526106e99190810190610b99565b905060005b81518110156108465760007f00000000000000000000000000000000000000000000000000000000000000006001600160a01b0316631b80bb3a84848151811061073a5761073a610c3f565b60200260200101516040518263ffffffff1660e01b815260040161076091815260200190565b60e060405180830381865afa15801561077d573d6000803e3d6000fd5b505050506040513d601f19601f820116820180604052508101906107a19190610c6b565b6040808201516020808401516000908152908190529182205492935091908190036107cb57506127105b60006107da8460c00151610a13565b905060006107eb8560a00151610a5a565b9050600064e8d4a5100082846108018789610d18565b61080b9190610d18565b6108159190610d18565b61081f9190610d2f565b905061082b818a610d51565b9850505050505050808061083e90610cff565b9150506106ee565b5050919050565b60008060007f00000000000000000000000000000000000000000000000000000000000000006001600160a01b031663b385565b866040518263ffffffff1660e01b81526004016108a091815260200190565b600060405180830381865afa1580156108bd573d6000803e3d6000fd5b505050506040513d6000823e601f3d908101601f191682016040526108e59190810190610b99565b905060005b8151811015610a0a5760007f00000000000000000000000000000000000000000000000000000000000000006001600160a01b0316631b80bb3a84848151811061093657610936610c3f565b60200260200101516040518263ffffffff1660e01b815260040161095c91815260200190565b60e060405180830381865afa158015610979573d6000803e3d6000fd5b505050506040513d601f19601f8201168201806040525081019061099d9190610c6b565b9050858160200151036109f75760408101516109b99086610d51565b945060006109ca8260c00151610a13565b90506127108183604001516109df9190610d18565b6109e99190610d2f565b6109f39086610d51565b9450505b5080610a0281610cff565b9150506108ea565b50509250929050565b60008160ff16600103610a295750612710919050565b8160ff16600203610a3d5750611388919050565b8160ff16600303610a5157506103e8919050565b506103e8919050565b60008167ffffffffffffffff164211610a765750612710919050565b6000610a8c67ffffffffffffffff841642610d64565b905060006301e13380610aa16103e884610d18565b610aab9190610d2f565b90506123288110610ac157506103e89392505050565b610acd81612710610d64565b949350505050565b600060208284031215610ae757600080fd5b5035919050565b60008060408385031215610b0157600080fd5b50508035926020909101359150565b600060208284031215610b2257600080fd5b5051919050565b634e487b7160e01b600052604160045260246000fd5b60405160e0810167ffffffffffffffff81118282101715610b6257610b62610b29565b60405290565b604051601f8201601f1916810167ffffffffffffffff81118282101715610b9157610b91610b29565b604052919050565b60006020808385031215610bac57600080fd5b825167ffffffffffffffff80821115610bc457600080fd5b818501915085601f830112610bd857600080fd5b815181811115610bea57610bea610b29565b8060051b9150610bfb848301610b68565b8181529183018401918481019088841115610c1557600080fd5b938501935b83851015610c3357845182529385019390850190610c1a565b98975050505050505050565b634e487b7160e01b600052603260045260246000fd5b805160ff81168114610c6657600080fd5b919050565b600060e08284031215610c7d57600080fd5b610c85610b3f565b825181526020830151602082015260408301516040820152606083015160608201526080830151608082015260a083015167ffffffffffffffff81168114610ccc57600080fd5b60a0820152610cdd60c08401610c55565b60c08201529392505050565b634e487b7160e01b600052601160045260246000fd5b600060018201610d1157610d11610ce9565b5060010190565b808202811582820484141761048357610483610ce9565b600082610d4c57634e487b7160e01b600052601260045260246000fd5b500490565b8082018082111561048357610483610ce9565b8181038181111561048357610483610ce956fea2646970667358221220491ab767064f3fa2a450631218f1a7d59aa72e2637d63b15a57fcc2428d528fb64736f6c63430008140033",
  "linkReferences": {},
  "deployedLinkReferences": {}
}