{
  "_format": "hh-sol-artifact-1",
  "contractName": "PoSHNFT",
  "sourceName": "contracts/PoSHNFT.sol",
  "abi": [
    {
      "inputs": [
        {
          "internalType": "address",
          "name": "_humanIdentity",
          "type": "address"
        },
        {
          "internalType": "address",
          "name": "_proofRegistry",
          "type": "address"
        }
      ],
      "stateMutability": "nonpayable",
      "type": "constructor"
    },
    {
      "inputs": [
        {
          "internalType": "address",
          "name": "sender",
          "type": "address"
        },
        {
          "internalType": "uint256",
          "name": "tokenId",
          "type": "uint256"
        },
        {
          "internalType": "address",
          "name": "owner",
          "type": "address"
        }
      ],
      "name": "ERC721IncorrectOwner",
      "type": "error"
    },
    {
      "inputs": [
        {
          "internalType": "address",
          "name": "operator",
          "type": "address"
        },
        {
          "internalType": "uint256",
          "name": "tokenId",
          "type": "uint256"
        }
      ],
      "name": "ERC721InsufficientApproval",
      "type": "error"
    },
    {
      "inputs": [
        {
          "internalType": "address",
          "name": "approver",
          "type": "address"
        }
      ],
      "name": "ERC721InvalidApprover",
      "type": "error"
    },
    {
      "inputs": [
        {
          "internalType": "address",
          "name": "operator",
          "type": "address"
        }
      ],
      "name": "ERC721InvalidOperator",
      "type": "error"
    },
    {
      "inputs": [
        {
          "internalType": "address",
          "name": "owner",
          "type": "address"
        }
      ],
      "name": "ERC721InvalidOwner",
      "type": "error"
    },
    {
      "inputs": [
        {
          "internalType": "address",
          "name": "receiver",
          "type": "address"
        }
      ],
      "name": "ERC721InvalidReceiver",
      "type": "error"
    },
    {
      "inputs": [
        {
          "internalType": "address",
          "name": "sender",
          "type": "address"
        }
      ],
      "name": "ERC721InvalidSender",
      "type": "error"
    },
    {
      "inputs": [
        {
          "internalType": "uint256",
          "name": "tokenId",
          "type": "uint256"
        }
      ],
      "name": "ERC721NonexistentToken",
      "type": "error"
    },
    {
      "inputs": [],
      "name": "NoProofsProvided",
      "type": "error"
    },
    {
      "inputs": [],
      "name": "NotHumanOwner",
      "type": "error"
    },
    {
      "inputs": [],
      "name": "ProofAlreadyMinted",
      "type": "error"
    },
    {
      "inputs": [],
      "name": "ProofNotOwnedByHuman",
      "type": "error"
    },
    {
      "inputs": [],
      "name": "SoulboundTransferBlocked",
      "type": "error"
    },
    {
      "anonymous": false,
      "inputs": [
        {
          "indexed": true,
          "internalType": "address",
          "name": "owner",
          "type": "address"
        },
        {
          "indexed": true,
          "internalType": "address",
          "name": "approved",
          "type": "address"
        },
        {
          "indexed": true,
          "internalType": "uint256",
          "name": "tokenId",
          "type": "uint256"
        }
      ],
      "name": "Approval",
      "type": "event"
    },
    {
      "anonymous": false,
      "inputs": [
        {
          "indexed": true,
          "internalType": "address",
          "name": "owner",
          "type": "address"
        },
        {
          "indexed": true,
          "internalType": "address",
          "name": "operator",
          "type": "address"
        },
        {
          "indexed": false,
          "internalType": "bool",
          "name": "approved",
          "type": "bool"
        }
      ],
      "name": "ApprovalForAll",
      "type": "event"
    },
    {
      "anonymous": false,
      "inputs": [
        {
          "indexed": false,
          "internalType": "uint256",
          "name": "_fromTokenId",
          "type": "uint256"
        },
        {
          "indexed": false,
          "internalType": "uint256",
          "name": "_toTokenId",
          "type": "uint256"
        }
      ],
      "name": "BatchMetadataUpdate",
      "type": "event"
    },
    {
      "anonymous": false,
      "inputs": [
        {
          "indexed": false,
          "internalType": "uint256",
          "name": "_tokenId",
          "type": "uint256"
        }
      ],
      "name": "MetadataUpdate",
      "type": "event"
    },
    {
      "anonymous": false,
      "inputs": [
        {
          "indexed": true,
          "internalType": "bytes32",
          "name": "humanId",
          "type": "bytes32"
        },
        {
          "indexed": true,
          "internalType": "uint256",
          "name": "tokenId",
          "type": "uint256"
        },
        {
          "indexed": false,
          "internalType": "uint256",
          "name": "proofCount",
          "type": "uint256"
        },
        {
          "indexed": false,
          "internalType": "uint256",
          "name": "totalCO2e",
          "type": "uint256"
        }
      ],
      "name": "PoSHMinted",
      "type": "event"
    },
    {
      "anonymous": false,
      "inputs": [
        {
          "indexed": true,
          "internalType": "address",
          "name": "from",
          "type": "address"
        },
        {
          "indexed": true,
          "internalType": "address",
          "name": "to",
          "type": "address"
        },
        {
          "indexed": true,
          "internalType": "uint256",
          "name": "tokenId",
          "type": "uint256"
        }
      ],
      "name": "Transfer",
      "type": "event"
    },
    {
      "inputs": [
        {
          "internalType": "address",
          "name": "to",
          "type": "address"
        },
        {
          "internalType": "uint256",
          "name": "tokenId",
          "type": "uint256"
        }
      ],
      "name": "approve",
      "outputs": [],
      "stateMutability": "nonpayable",
      "type": "function"
    },
    {
      "inputs": [
        {
          "internalType": "address",
          "name": "owner",
          "type": "address"
        }
      ],
      "name": "balanceOf",
      "outputs": [
        {
          "internalType": "uint256",
          "name": "",
          "type": "uint256"
        }
      ],
      "stateMutability": "view",
      "type": "function"
    },
    {
      "inputs": [
        {
          "internalType": "uint256",
          "name": "tokenId",
          "type": "uint256"
        }
      ],
      "name": "getApproved",
      "outputs": [
        {
          "internalType": "address",
          "name": "",
          "type": "address"
        }
      ],
      "stateMutability": "view",
      "type": "function"
    },
    {
      "inputs": [
        {
          "internalType": "bytes32",
          "name": "humanId",
          "type": "bytes32"
        }
      ],
      "name": "getHumanTokens",
      "outputs": [
        {
          "internalType": "uint256[]",
          "name": "",
          "type": "uint256[]"
        }
      ],
      "stateMutability": "view",
      "type": "function"
    },
    {
      "inputs": [
        {
          "internalType": "uint256",
          "name": "tokenId",
          "type": "uint256"
        }
      ],
      "name": "getTokenProofs",
      "outputs": [
        {
          "internalType": "bytes32[]",
          "name": "",
          "type": "bytes32[]"
        }
      ],
      "stateMutability": "view",
      "type": "function"
    },
    {
      "inputs": [
        {
          "internalType": "bytes32",
          "name": "humanId",
          "type": "bytes32"
        }
      ],
      "name": "getTotalCO2e",
      "outputs": [
        {
          "internalType": "uint256",
          "name": "",
          "type": "uint256"
        }
      ],
      "stateMutability": "view",
      "type": "function"
    },
    {
      "inputs": [
        {
          "internalType": "bytes32",
          "name": "humanId",
          "type": "bytes32"
        }
      ],
      "name": "hasPoSH",
      "outputs": [
        {
          "internalType": "bool",
          "name": "",
          "type": "bool"
        }
      ],
      "stateMutability": "view",
      "type": "function"
    },
    {
      "inputs": [],
      "name": "humanIdentity",
      "outputs": [
        {
          "internalType": "contract IHumanIdentity",
          "name": "",
          "type": "address"
        }
      ],
      "stateMutability": "view",
      "type": "function"
    },
    {
      "inputs": [
        {
          "internalType": "bytes32",
          "name": "",
          "type": "bytes32"
        },
        {
          "internalType": "uint256",
          "name": "",
          "type": "uint256"
        }
      ],
      "name": "humanTokens",
      "outputs": [
        {
          "internalType": "uint256",
          "name": "",
          "type": "uint256"
        }
      ],
      "stateMutability": "view",
      "type": "function"
    },
    {
      "inputs": [
        {
          "internalType": "address",
          "name": "owner",
          "type": "address"
        },
        {
          "internalType": "address",
          "name": "operator",
          "type": "address"
        }
      ],
      "name": "isApprovedForAll",
      "outputs": [
        {
          "internalType": "bool",
          "name": "",
          "type": "bool"
        }
      ],
      "stateMutability": "view",
      "type": "function"
    },
    {
      "inputs": [
        {
          "internalType": "bytes32[]",
          "name": "proofIds",
          "type": "bytes32[]"
        },
        {
          "internalType": "string",
          "name": "metadataURI",
          "type": "string"
        },
        {
          "internalType": "string",
          "name": "period",
          "type": "string"
        }
      ],
      "name": "mintPoSH",
      "outputs": [
        {
          "internalType": "uint256",
          "name": "tokenId",
          "type": "uint256"
        }
      ],
      "stateMutability": "nonpayable",
      "type": "function"
    },
    {
      "inputs": [],
      "name": "name",
      "outputs": [
        {
          "internalType": "string",
          "name": "",
          "type": "string"
        }
      ],
      "stateMutability": "view",
      "type": "function"
    },
    {
      "inputs": [
        {
          "internalType": "uint256",
          "name": "tokenId",
          "type": "uint256"
        }
      ],
      "name": "ownerOf",
      "outputs": [
        {
          "internalType": "address",
          "name": "",
          "type": "address"
        }
      ],
      "stateMutability": "view",
      "type": "function"
    },
    {
      "inputs": [],
      "name": "proofRegistry",
      "outputs": [
        {
          "internalType": "contract ProofRegistry",
          "name": "",
          "type": "address"
        }
      ],
      "stateMutability": "view",
      "type": "function"
    },
    {
      "inputs": [
        {
          "internalType": "bytes32",
          "name": "",
          "type": "bytes32"
        }
      ],
      "name": "proofToToken",
      "outputs": [
        {
          "internalType": "uint256",
          "name": "",
          "type": "uint256"
        }
      ],
      "stateMutability": "view",
      "type": "function"
    },
    {
      "inputs": [
        {
          "internalType": "address",
          "name": "from",
          "type": "address"
        },
        {
          "internalType": "address",
          "name": "to",
          "type": "address"
        },
        {
          "internalType": "uint256",
          "name": "tokenId",
          "type": "uint256"
        }
      ],
      "name": "safeTransferFrom",
      "outputs": [],
      "stateMutability": "nonpayable",
      "type": "function"
    },
    {
      "inputs": [
        {
          "internalType": "address",
          "name": "from",
          "type": "address"
        },
        {
          "internalType": "address",
          "name": "to",
          "type": "address"
        },
        {
          "internalType": "uint256",
          "name": "tokenId",
          "type": "uint256"
        },
        {
          "internalType": "bytes",
          "name": "data",
          "type": "bytes"
        }
      ],
      "name": "safeTransferFrom",
      "outputs": [],
      "stateMutability": "nonpayable",
      "type": "function"
    },
    {
      "inputs": [
        {
          "internalType": "address",
          "name": "operator",
          "type": "address"
        },
        {
          "internalType": "bool",
          "name": "approved",
          "type": "bool"
        }
      ],
      "name": "setApprovalForAll",
      "outputs": [],
      "stateMutability": "nonpayable",
      "type": "function"
    },
    {
      "inputs": [
        {
          "internalType": "bytes4",
          "name": "interfaceId",
          "type": "bytes4"
        }
      ],
      "name": "supportsInterface",
      "outputs": [
        {
          "internalType": "bool",
          "name": "",
          "type": "bool"
        }
      ],
      "stateMutability": "view",
      "type": "function"
    },
    {
      "inputs": [],
      "name": "symbol",
      "outputs": [
        {
          "internalType": "string",
          "name": "",
          "type": "string"
        }
      ],
      "stateMutability": "view",
      "type": "function"
    },
    {
      "inputs": [
        {
          "internalType": "uint256",
          "name": "",
          "type": "uint256"
        }
      ],
      "name": "tokenMetadata",
      "outputs": [
        {
          "internalType": "bytes32",
          "name": "humanId",
          "type": "bytes32"
        },
        {
          "internalType": "uint256",
          "name": "totalCO2e",
          "type": "uint256"
        },
        {
          "internalType": "uint256",
          "name": "totalEnergy",
          "type": "uint256"
        },
        {
          "internalType": "uint256",
          "name": "mintTimestamp",
          "type": "uint256"
        },
        {
          "internalType": "string",
          "name": "period",
          "type": "string"
        }
      ],
      "stateMutability": "view",
      "type": "function"
    },
    {
      "inputs": [
        {
          "internalType": "uint256",
          "name": "tokenId",
          "type": "uint256"
        }
      ],
      "name": "tokenURI",
      "outputs": [
        {
          "internalType": "string",
          "name": "",
          "type": "string"
        }
      ],
      "stateMutability": "view",
      "type": "function"
    },
    {
      "inputs": [
        {
          "internalType": "address",
          "name": "from",
          "type": "address"
        },
        {
          "internalType": "address",
          "name": "to",
          "type": "address"
        },
        {
          "internalType": "uint256",
          "name": "tokenId",
          "type": "uint256"
        }
      ],
      "name": "transferFrom",
      "outputs": [],
      "stateMutability": "nonpayable",
      "type": "function"
    }
  ],
  "bytecode": "0x60c06040523480156200001157600080fd5b5060405162002176380380620021768339810160408190526200003491620000df565b6040518060400160405280601d81526020017f50726f6f66206f66205375737461696e61626c652048756d616e697479000000815250604051806040016040528060048152602001630a09ea6960e31b8152508160009081620000989190620001bc565b506001620000a78282620001bc565b5050506001600160a01b039182166080521660a05262000288565b80516001600160a01b0381168114620000da57600080fd5b919050565b60008060408385031215620000f357600080fd5b620000fe83620000c2565b91506200010e60208401620000c2565b90509250929050565b634e487b7160e01b600052604160045260246000fd5b600181811c908216806200014257607f821691505b6020821081036200016357634e487b7160e01b600052602260045260246000fd5b50919050565b601f821115620001b757600081815260208120601f850160051c81016020861015620001925750805b601f850160051c820191505b81811015620001b3578281556001016200019e565b5050505b505050565b81516001600160401b03811115620001d857620001d862000117565b620001f081620001e984546200012d565b8462000169565b602080601f8311600181146200022857600084156200020f5750858301515b600019600386901b1c1916600185901b178555620001b3565b600085815260208120601f198616915b82811015620002595788860151825594840194600190910190840162000238565b5085821015620002785787850151600019600388901b60f8161c191681555b5050505050600190811b01905550565b60805160a051611eba620002bc60003960008181610322015261092d01526000818161029801526108220152611eba6000f3fe608060405234801561001057600080fd5b506004361061014d5760003560e01c80636914db60116100c3578063a2ea10831161007c578063a2ea1083146102fb578063af1bd8271461031d578063b88d4fde14610344578063c87b56dd14610357578063e951a5fa1461036a578063e985e9c51461038a57600080fd5b80636914db601461026f578063701a78b71461029357806370a08231146102ba5780638c8624e6146102cd57806395d89b41146102e0578063a22cb465146102e857600080fd5b8063395c1eec11610115578063395c1eec146101e257806342842e0e146102035780635d78275b146102165780635f78a2ad146102365780636352211e146102495780636574a2ed1461025c57600080fd5b806301ffc9a71461015257806306fdde031461017a578063081812fc1461018f578063095ea7b3146101ba57806323b872dd146101cf575b600080fd5b610165610160366004611700565b61039d565b60405190151581526020015b60405180910390f35b6101826103ae565b604051610171919061176d565b6101a261019d366004611780565b610440565b6040516001600160a01b039091168152602001610171565b6101cd6101c83660046117b5565b610469565b005b6101cd6101dd3660046117df565b610478565b6101f56101f0366004611780565b610508565b604051908152602001610171565b6101cd6102113660046117df565b6105c6565b610229610224366004611780565b6105e6565b604051610171919061181b565b610229610244366004611780565b610648565b6101a2610257366004611780565b6106ab565b6101f561026a36600461185f565b6106b6565b61028261027d366004611780565b6106e7565b604051610171959493929190611881565b6101a27f000000000000000000000000000000000000000000000000000000000000000081565b6101f56102c83660046118b7565b6107a0565b6101f56102db36600461191b565b6107e8565b610182610c98565b6101cd6102f63660046119e3565b610ca7565b610165610309366004611780565b6000908152600a6020526040902054151590565b6101a27f000000000000000000000000000000000000000000000000000000000000000081565b6101cd610352366004611a8f565b610cb2565b610182610365366004611780565b610cca565b6101f5610378366004611780565b60096020526000908152604090205481565b610165610398366004611b4f565b610cd5565b60006103a882610d03565b92915050565b6060600080546103bd90611b82565b80601f01602080910402602001604051908101604052809291908181526020018280546103e990611b82565b80156104365780601f1061040b57610100808354040283529160200191610436565b820191906000526020600020905b81548152906001019060200180831161041957829003601f168201915b5050505050905090565b600061044b82610d28565b506000828152600460205260409020546001600160a01b03166103a8565b610474828233610d61565b5050565b6001600160a01b0382166104a757604051633250574960e11b8152600060048201526024015b60405180910390fd5b60006104b4838333610d6e565b9050836001600160a01b0316816001600160a01b031614610502576040516364283d7b60e01b81526001600160a01b038086166004830152602482018490528216604482015260640161049e565b50505050565b6000818152600a602090815260408083208054825181850281018501909352808352849383018282801561055b57602002820191906000526020600020905b815481526020019060010190808311610547575b505050505090506000805b82518110156105be576008600084838151811061058557610585611bbc565b6020026020010151815260200190815260200160002060020154826105aa9190611be8565b9150806105b681611bfb565b915050610566565b509392505050565b6105e183838360405180602001604052806000815250610cb2565b505050565b6000818152600a602090815260409182902080548351818402810184019094528084526060939283018282801561063c57602002820191906000526020600020905b815481526020019060010190808311610628575b50505050509050919050565b60008181526008602090815260409182902060010180548351818402810184019094528084526060939283018282801561063c57602002820191906000526020600020908154815260200190600101908083116106285750505050509050919050565b60006103a882610d28565b600a60205281600052604060002081815481106106d257600080fd5b90600052602060002001600091509150505481565b60086020526000908152604090208054600282015460038301546004840154600585018054949593949293919261071d90611b82565b80601f016020809104026020016040519081016040528092919081815260200182805461074990611b82565b80156107965780601f1061076b57610100808354040283529160200191610796565b820191906000526020600020905b81548152906001019060200180831161077957829003601f168201915b5050505050905085565b60006001600160a01b0382166107cc576040516322718ad960e21b81526000600482015260240161049e565b506001600160a01b031660009081526003602052604090205490565b600085810361080a5760405163719ab93960e11b815260040160405180910390fd5b60405163ba2fc4bb60e01b81523360048201526000907f00000000000000000000000000000000000000000000000000000000000000006001600160a01b03169063ba2fc4bb90602401602060405180830381865afa158015610871573d6000803e3d6000fd5b505050506040513d601f19601f820116820180604052508101906108959190611c14565b9050806108b5576040516304c1758760e51b815260040160405180910390fd5b60008060005b89811015610a825760008b8b838181106108d7576108d7611bbc565b905060200201359050600960008281526020019081526020016000205460001461091457604051634f05cdd560e01b815260040160405180910390fd5b604051630dc05d9d60e11b8152600481018290526000907f00000000000000000000000000000000000000000000000000000000000000006001600160a01b031690631b80bb3a9060240160e060405180830381865afa15801561097c573d6000803e3d6000fd5b505050506040513d601f19601f820116820180604052508101906109a09190611c3e565b805190915086146109c4576040516325a3e56760e21b815260040160405180910390fd5b7f7b3078b4643a2e1bcb01765080deadcd8fe753a6c1ab9a6ce2cfdd6db149345b816020015103610a055760408101516109fe9086611be8565b9450610a6d565b7f142b73925e8bf2e0aa11e45a695345afce4963253ae3b068ef5b55b935c8e13d816020015103610a6d576040810151610a3f9085611be8565b93506103e88160400151610190610a569190611cbc565b610a609190611cd3565b610a6a9086611be8565b94505b50508080610a7a90611bfb565b9150506108bb565b5060078054906000610a9383611bfb565b919050559350610aa33385610dcf565b610ae38489898080601f016020809104026020016040519081016040528093929190818152602001838380828437600092019190915250610de992505050565b6040518060c001604052808481526020018b8b80806020026020016040519081016040528093929190818152602001838360200280828437600092019190915250505090825250602080820185905260408083018590524260608401528051601f8a01839004830281018301909152888152608090920191908990899081908401838280828437600092018290525093909452505086815260086020908152604090912083518155838201518051919350610ba5926001850192910190611687565b5060408201516002820155606082015160038201556080820151600482015560a08201516005820190610bd89082611d3b565b5090505060005b89811015610c2a5784600960008d8d85818110610bfe57610bfe611bbc565b905060200201358152602001908152602001600020819055508080610c2290611bfb565b915050610bdf565b506000838152600a6020908152604080832080546001810182559084529282902090920186905581518b8152908101849052859185917f5869d090f17cd9a0a9aa5fae0e82ae08694d4b5439c7d4bab3005da845c53dad910160405180910390a35050509695505050505050565b6060600180546103bd90611b82565b610474338383610e39565b610cbd848484610478565b6105023385858585610ed8565b60606103a882611003565b6001600160a01b03918216600090815260056020908152604080832093909416825291909152205460ff1690565b60006001600160e01b03198216632483248360e11b14806103a857506103a882611114565b6000818152600260205260408120546001600160a01b0316806103a857604051637e27328960e01b81526004810184905260240161049e565b6105e18383836001611164565b6000828152600260205260408120546001600160a01b03168015801590610d9d57506001600160a01b03851615155b15610dbb5760405163bb3f506960e01b815260040160405180910390fd5b610dc685858561126a565b95945050505050565b610474828260405180602001604052806000815250611363565b6000828152600660205260409020610e018282611d3b565b506040518281527ff8e1a15aba9398e019f0b49df1a4fde98ee17ae345cb5f6b5e2c27f5033e8ce79060200160405180910390a15050565b6001600160a01b038216610e6b57604051630b61174360e31b81526001600160a01b038316600482015260240161049e565b6001600160a01b03838116600081815260056020908152604080832094871680845294825291829020805460ff191686151590811790915591519182527f17307eab39ab6107e8899845ad3d59bd9653f200f220920489ca2b5937696c31910160405180910390a3505050565b6001600160a01b0383163b15610ffc57604051630a85bd0160e11b81526001600160a01b0384169063150b7a0290610f1a908890889087908790600401611dfb565b6020604051808303816000875af1925050508015610f55575060408051601f3d908101601f19168201909252610f5291810190611e38565b60015b610fbe573d808015610f83576040519150601f19603f3d011682016040523d82523d6000602084013e610f88565b606091505b508051600003610fb657604051633250574960e11b81526001600160a01b038516600482015260240161049e565b805160208201fd5b6001600160e01b03198116630a85bd0160e11b14610ffa57604051633250574960e11b81526001600160a01b038516600482015260240161049e565b505b5050505050565b606061100e82610d28565b506000828152600660205260408120805461102890611b82565b80601f016020809104026020016040519081016040528092919081815260200182805461105490611b82565b80156110a15780601f10611076576101008083540402835291602001916110a1565b820191906000526020600020905b81548152906001019060200180831161108457829003601f168201915b5050505050905060006110bf60408051602081019091526000815290565b905080516000036110d1575092915050565b8151156111035780826040516020016110eb929190611e55565b60405160208183030381529060405292505050919050565b61110c8461137b565b949350505050565b60006001600160e01b031982166380ac58cd60e01b148061114557506001600160e01b03198216635b5e139f60e01b145b806103a857506301ffc9a760e01b6001600160e01b03198316146103a8565b808061117857506001600160a01b03821615155b1561123a57600061118884610d28565b90506001600160a01b038316158015906111b45750826001600160a01b0316816001600160a01b031614155b80156111c757506111c58184610cd5565b155b156111f05760405163a9fbf51f60e01b81526001600160a01b038416600482015260240161049e565b81156112385783856001600160a01b0316826001600160a01b03167f8c5be1e5ebec7d5bd14f71427d1e84f3dd0314c0f7b2291e5b200ac8c7c3b92560405160405180910390a45b505b5050600090815260046020526040902080546001600160a01b0319166001600160a01b0392909216919091179055565b6000828152600260205260408120546001600160a01b0390811690831615611297576112978184866113f0565b6001600160a01b038116156112d5576112b4600085600080611164565b6001600160a01b038116600090815260036020526040902080546000190190555b6001600160a01b03851615611304576001600160a01b0385166000908152600360205260409020805460010190555b60008481526002602052604080822080546001600160a01b0319166001600160a01b0389811691821790925591518793918516917fddf252ad1be2c89b69c2b068fc378daa952ba7f163c4a11628f55a4df523b3ef91a4949350505050565b61136d8383611454565b6105e1336000858585610ed8565b606061138682610d28565b50600061139e60408051602081019091526000815290565b905060008151116113be57604051806020016040528060008152506113e9565b806113c8846114b9565b6040516020016113d9929190611e55565b6040516020818303038152906040525b9392505050565b6113fb83838361154c565b6105e1576001600160a01b03831661142957604051637e27328960e01b81526004810182905260240161049e565b60405163177e802f60e01b81526001600160a01b03831660048201526024810182905260440161049e565b6001600160a01b03821661147e57604051633250574960e11b81526000600482015260240161049e565b600061148c83836000610d6e565b90506001600160a01b038116156105e1576040516339e3563760e11b81526000600482015260240161049e565b606060006114c6836115af565b600101905060008167ffffffffffffffff8111156114e6576114e6611a1f565b6040519080825280601f01601f191660200182016040528015611510576020820181803683370190505b5090508181016020015b600019016f181899199a1a9b1b9c1cb0b131b232b360811b600a86061a8153600a850494508461151a57509392505050565b60006001600160a01b0383161580159061110c5750826001600160a01b0316846001600160a01b0316148061158657506115868484610cd5565b8061110c5750506000908152600460205260409020546001600160a01b03908116911614919050565b60008072184f03e93ff9f4daa797ed6e38ed64bf6a1f0160401b83106115ee5772184f03e93ff9f4daa797ed6e38ed64bf6a1f0160401b830492506040015b6d04ee2d6d415b85acef8100000000831061161a576d04ee2d6d415b85acef8100000000830492506020015b662386f26fc10000831061163857662386f26fc10000830492506010015b6305f5e1008310611650576305f5e100830492506008015b612710831061166457612710830492506004015b60648310611676576064830492506002015b600a83106103a85760010192915050565b8280548282559060005260206000209081019282156116c2579160200282015b828111156116c25782518255916020019190600101906116a7565b506116ce9291506116d2565b5090565b5b808211156116ce57600081556001016116d3565b6001600160e01b0319811681146116fd57600080fd5b50565b60006020828403121561171257600080fd5b81356113e9816116e7565b60005b83811015611738578181015183820152602001611720565b50506000910152565b6000815180845261175981602086016020860161171d565b601f01601f19169290920160200192915050565b6020815260006113e96020830184611741565b60006020828403121561179257600080fd5b5035919050565b80356001600160a01b03811681146117b057600080fd5b919050565b600080604083850312156117c857600080fd5b6117d183611799565b946020939093013593505050565b6000806000606084860312156117f457600080fd5b6117fd84611799565b925061180b60208501611799565b9150604084013590509250925092565b6020808252825182820181905260009190848201906040850190845b8181101561185357835183529284019291840191600101611837565b50909695505050505050565b6000806040838503121561187257600080fd5b50508035926020909101359150565b85815284602082015283604082015282606082015260a0608082015260006118ac60a0830184611741565b979650505050505050565b6000602082840312156118c957600080fd5b6113e982611799565b60008083601f8401126118e457600080fd5b50813567ffffffffffffffff8111156118fc57600080fd5b60208301915083602082850101111561191457600080fd5b9250929050565b6000806000806000806060878903121561193457600080fd5b863567ffffffffffffffff8082111561194c57600080fd5b818901915089601f83011261196057600080fd5b81358181111561196f57600080fd5b8a60208260051b850101111561198457600080fd5b60209283019850965090880135908082111561199f57600080fd5b6119ab8a838b016118d2565b909650945060408901359150808211156119c457600080fd5b506119d189828a016118d2565b979a9699509497509295939492505050565b600080604083850312156119f657600080fd5b6119ff83611799565b915060208301358015158114611a1457600080fd5b809150509250929050565b634e487b7160e01b600052604160045260246000fd5b60405160e0810167ffffffffffffffff81118282101715611a5857611a58611a1f565b60405290565b604051601f8201601f1916810167ffffffffffffffff81118282101715611a8757611a87611a1f565b604052919050565b60008060008060808587031215611aa557600080fd5b611aae85611799565b93506020611abd818701611799565b935060408601359250606086013567ffffffffffffffff80821115611ae157600080fd5b818801915088601f830112611af557600080fd5b813581811115611b0757611b07611a1f565b611b19601f8201601f19168501611a5e565b91508082528984828501011115611b2f57600080fd5b808484018584013760008482840101525080935050505092959194509250565b60008060408385031215611b6257600080fd5b611b6b83611799565b9150611b7960208401611799565b90509250929050565b600181811c90821680611b9657607f821691505b602082108103611bb657634e487b7160e01b600052602260045260246000fd5b50919050565b634e487b7160e01b600052603260045260246000fd5b634e487b7160e01b600052601160045260246000fd5b808201808211156103a8576103a8611bd2565b600060018201611c0d57611c0d611bd2565b5060010190565b600060208284031215611c2657600080fd5b5051919050565b805160ff811681146117b057600080fd5b600060e08284031215611c5057600080fd5b611c58611a35565b825181526020830151602082015260408301516040820152606083015160608201526080830151608082015260a083015167ffffffffffffffff81168114611c9f57600080fd5b60a0820152611cb060c08401611c2d565b60c08201529392505050565b80820281158282048414176103a8576103a8611bd2565b600082611cf057634e487b7160e01b600052601260045260246000fd5b500490565b601f8211156105e157600081815260208120601f850160051c81016020861015611d1c5750805b601f850160051c820191505b81811015610ffa57828155600101611d28565b815167ffffffffffffffff811115611d5557611d55611a1f565b611d6981611d638454611b82565b84611cf5565b602080601f831160018114611d9e5760008415611d865750858301515b600019600386901b1c1916600185901b178555610ffa565b600085815260208120601f198616915b82811015611dcd57888601518255948401946001909101908401611dae565b5085821015611deb5787850151600019600388901b60f8161c191681555b5050505050600190811b01905550565b6001600160a01b0385811682528416602082015260408101839052608060608201819052600090611e2e90830184611741565b9695505050505050565b600060208284031215611e4a57600080fd5b81516113e9816116e7565b60008351611e6781846020880161171d565b835190830190611e7b81836020880161171d565b0194935050505056fea26469706673582212207392ddf36aa219e64e4ae9b2768b75a14ae257d60137dcc88b8e7a3f525e297064736f6c63430008140033",
  "linkReferences": {},
  "deployedLinkReferences": {}
}